{
  "_format": "hh-sol-artifact-1",
  "contractName": "DiamondConsolidated",
  "sourceName": "contracts/Comptroller/Diamond/DiamondConsolidated.sol",
  "abi": [
    {
      "inputs": [],
      "name": "AlreadyInSelectedPool",
      "type": "error"
    },
    {
      "inputs": [],
      "name": "ArrayLengthMismatch",
      "type": "error"
    },
    {
      "inputs": [],
      "name": "BorrowNotAllowedInPool",
      "type": "error"
    },
    {
      "inputs": [],
      "name": "EmptyPoolLabel",
      "type": "error"
    },
    {
      "inputs": [
        {
          "internalType": "uint96",
          "name": "poolId",
          "type": "uint96"
        }
      ],
      "name": "InactivePool",
      "type": "error"
    },
    {
      "inputs": [],
      "name": "IncompatibleBorrowedAssets",
      "type": "error"
    },
    {
      "inputs": [],
      "name": "InvalidOperationForCorePool",
      "type": "error"
    },
    {
      "inputs": [
        {
          "internalType": "enum WeightFunction",
          "name": "strategy",
          "type": "uint8"
        }
      ],
      "name": "InvalidWeightingStrategy",
      "type": "error"
    },
    {
      "inputs": [
        {
          "internalType": "uint256",
          "name": "errorCode",
          "type": "uint256"
        },
        {
          "internalType": "uint256",
          "name": "shortfall",
          "type": "uint256"
        }
      ],
      "name": "LiquidityCheckFailed",
      "type": "error"
    },
    {
      "inputs": [
        {
          "internalType": "uint96",
          "name": "poolId",
          "type": "uint96"
        },
        {
          "internalType": "address",
          "name": "vToken",
          "type": "address"
        }
      ],
      "name": "MarketAlreadyListed",
      "type": "error"
    },
    {
      "inputs": [],
      "name": "MarketConfigNotFound",
      "type": "error"
    },
    {
      "inputs": [],
      "name": "MarketNotListedInCorePool",
      "type": "error"
    },
    {
      "inputs": [
        {
          "internalType": "uint96",
          "name": "poolId",
          "type": "uint96"
        }
      ],
      "name": "PoolDoesNotExist",
      "type": "error"
    },
    {
      "inputs": [
        {
          "internalType": "uint96",
          "name": "poolId",
          "type": "uint96"
        },
        {
          "internalType": "address",
          "name": "vToken",
          "type": "address"
        }
      ],
      "name": "PoolMarketNotFound",
      "type": "error"
    },
    {
      "anonymous": false,
      "inputs": [
        {
          "indexed": true,
          "internalType": "contract VToken",
          "name": "vToken",
          "type": "address"
        },
        {
          "indexed": true,
          "internalType": "enum Action",
          "name": "action",
          "type": "uint8"
        },
        {
          "indexed": false,
          "internalType": "bool",
          "name": "pauseState",
          "type": "bool"
        }
      ],
      "name": "ActionPausedMarket",
      "type": "event"
    },
    {
      "anonymous": false,
      "inputs": [
        {
          "indexed": false,
          "internalType": "bool",
          "name": "state",
          "type": "bool"
        }
      ],
      "name": "ActionProtocolPaused",
      "type": "event"
    },
    {
      "anonymous": false,
      "inputs": [
        {
          "indexed": true,
          "internalType": "uint96",
          "name": "poolId",
          "type": "uint96"
        },
        {
          "indexed": true,
          "internalType": "address",
          "name": "market",
          "type": "address"
        },
        {
          "indexed": false,
          "internalType": "bool",
          "name": "oldStatus",
          "type": "bool"
        },
        {
          "indexed": false,
          "internalType": "bool",
          "name": "newStatus",
          "type": "bool"
        }
      ],
      "name": "BorrowAllowedUpdated",
      "type": "event"
    },
    {
      "anonymous": false,
      "inputs": [
        {
          "indexed": true,
          "internalType": "address",
          "name": "approver",
          "type": "address"
        },
        {
          "indexed": true,
          "internalType": "address",
          "name": "delegate",
          "type": "address"
        },
        {
          "indexed": false,
          "internalType": "bool",
          "name": "approved",
          "type": "bool"
        }
      ],
      "name": "DelegateUpdated",
      "type": "event"
    },
    {
      "anonymous": false,
      "inputs": [
        {
          "components": [
            {
              "internalType": "address",
              "name": "facetAddress",
              "type": "address"
            },
            {
              "internalType": "enum IDiamondCut.FacetCutAction",
              "name": "action",
              "type": "uint8"
            },
            {
              "internalType": "bytes4[]",
              "name": "functionSelectors",
              "type": "bytes4[]"
            }
          ],
          "indexed": false,
          "internalType": "struct IDiamondCut.FacetCut[]",
          "name": "_diamondCut",
          "type": "tuple[]"
        }
      ],
      "name": "DiamondCut",
      "type": "event"
    },
    {
      "anonymous": false,
      "inputs": [
        {
          "indexed": true,
          "internalType": "contract VToken",
          "name": "vToken",
          "type": "address"
        },
        {
          "indexed": true,
          "internalType": "address",
          "name": "borrower",
          "type": "address"
        },
        {
          "indexed": false,
          "internalType": "uint256",
          "name": "venusDelta",
          "type": "uint256"
        },
        {
          "indexed": false,
          "internalType": "uint256",
          "name": "venusBorrowIndex",
          "type": "uint256"
        }
      ],
      "name": "DistributedBorrowerVenus",
      "type": "event"
    },
    {
      "anonymous": false,
      "inputs": [
        {
          "indexed": true,
          "internalType": "contract VToken",
          "name": "vToken",
          "type": "address"
        },
        {
          "indexed": true,
          "internalType": "address",
          "name": "supplier",
          "type": "address"
        },
        {
          "indexed": false,
          "internalType": "uint256",
          "name": "venusDelta",
          "type": "uint256"
        },
        {
          "indexed": false,
          "internalType": "uint256",
          "name": "venusSupplyIndex",
          "type": "uint256"
        }
      ],
      "name": "DistributedSupplierVenus",
      "type": "event"
    },
    {
      "anonymous": false,
      "inputs": [
        {
          "indexed": false,
          "internalType": "uint256",
          "name": "amount",
          "type": "uint256"
        }
      ],
      "name": "DistributedVAIVaultVenus",
      "type": "event"
    },
    {
      "anonymous": false,
      "inputs": [
        {
          "indexed": false,
          "internalType": "uint256",
          "name": "error",
          "type": "uint256"
        },
        {
          "indexed": false,
          "internalType": "uint256",
          "name": "info",
          "type": "uint256"
        },
        {
          "indexed": false,
          "internalType": "uint256",
          "name": "detail",
          "type": "uint256"
        }
      ],
      "name": "Failure",
      "type": "event"
    },
    {
      "anonymous": false,
      "inputs": [
        {
          "indexed": true,
          "internalType": "address",
          "name": "borrower",
          "type": "address"
        },
        {
          "indexed": true,
          "internalType": "address",
          "name": "vToken",
          "type": "address"
        },
        {
          "indexed": false,
          "internalType": "bool",
          "name": "enable",
          "type": "bool"
        }
      ],
      "name": "IsForcedLiquidationEnabledForUserUpdated",
      "type": "event"
    },
    {
      "anonymous": false,
      "inputs": [
        {
          "indexed": true,
          "internalType": "address",
          "name": "vToken",
          "type": "address"
        },
        {
          "indexed": false,
          "internalType": "bool",
          "name": "enable",
          "type": "bool"
        }
      ],
      "name": "IsForcedLiquidationEnabledUpdated",
      "type": "event"
    },
    {
      "anonymous": false,
      "inputs": [
        {
          "indexed": true,
          "internalType": "contract VToken",
          "name": "vToken",
          "type": "address"
        },
        {
          "indexed": true,
          "internalType": "address",
          "name": "account",
          "type": "address"
        }
      ],
      "name": "MarketEntered",
      "type": "event"
    },
    {
      "anonymous": false,
      "inputs": [
        {
          "indexed": true,
          "internalType": "contract VToken",
          "name": "vToken",
          "type": "address"
        },
        {
          "indexed": true,
          "internalType": "address",
          "name": "account",
          "type": "address"
        }
      ],
      "name": "MarketExited",
      "type": "event"
    },
    {
      "anonymous": false,
      "inputs": [
        {
          "indexed": true,
          "internalType": "contract VToken",
          "name": "vToken",
          "type": "address"
        }
      ],
      "name": "MarketListed",
      "type": "event"
    },
    {
      "anonymous": false,
      "inputs": [
        {
          "indexed": true,
          "internalType": "address",
          "name": "vToken",
          "type": "address"
        }
      ],
      "name": "MarketUnlisted",
      "type": "event"
    },
    {
      "anonymous": false,
      "inputs": [
        {
          "indexed": false,
          "internalType": "address",
          "name": "oldAccessControlAddress",
          "type": "address"
        },
        {
          "indexed": false,
          "internalType": "address",
          "name": "newAccessControlAddress",
          "type": "address"
        }
      ],
      "name": "NewAccessControl",
      "type": "event"
    },
    {
      "anonymous": false,
      "inputs": [
        {
          "indexed": true,
          "internalType": "contract VToken",
          "name": "vToken",
          "type": "address"
        },
        {
          "indexed": false,
          "internalType": "uint256",
          "name": "newBorrowCap",
          "type": "uint256"
        }
      ],
      "name": "NewBorrowCap",
      "type": "event"
    },
    {
      "anonymous": false,
      "inputs": [
        {
          "indexed": false,
          "internalType": "uint256",
          "name": "oldCloseFactorMantissa",
          "type": "uint256"
        },
        {
          "indexed": false,
          "internalType": "uint256",
          "name": "newCloseFactorMantissa",
          "type": "uint256"
        }
      ],
      "name": "NewCloseFactor",
      "type": "event"
    },
    {
      "anonymous": false,
      "inputs": [
        {
          "indexed": true,
          "internalType": "uint96",
          "name": "poolId",
          "type": "uint96"
        },
        {
          "indexed": true,
          "internalType": "contract VToken",
          "name": "vToken",
          "type": "address"
        },
        {
          "indexed": false,
          "internalType": "uint256",
          "name": "oldCollateralFactorMantissa",
          "type": "uint256"
        },
        {
          "indexed": false,
          "internalType": "uint256",
          "name": "newCollateralFactorMantissa",
          "type": "uint256"
        }
      ],
      "name": "NewCollateralFactor",
      "type": "event"
    },
    {
      "anonymous": false,
      "inputs": [
        {
          "indexed": false,
          "internalType": "address",
          "name": "oldComptrollerLens",
          "type": "address"
        },
        {
          "indexed": false,
          "internalType": "address",
          "name": "newComptrollerLens",
          "type": "address"
        }
      ],
      "name": "NewComptrollerLens",
      "type": "event"
    },
    {
      "anonymous": false,
      "inputs": [
        {
          "indexed": true,
          "internalType": "uint96",
          "name": "poolId",
          "type": "uint96"
        },
        {
          "indexed": true,
          "internalType": "address",
          "name": "vToken",
          "type": "address"
        },
        {
          "indexed": false,
          "internalType": "uint256",
          "name": "oldLiquidationIncentiveMantissa",
          "type": "uint256"
        },
        {
          "indexed": false,
          "internalType": "uint256",
          "name": "newLiquidationIncentiveMantissa",
          "type": "uint256"
        }
      ],
      "name": "NewLiquidationIncentive",
      "type": "event"
    },
    {
      "anonymous": false,
      "inputs": [
        {
          "indexed": true,
          "internalType": "uint96",
          "name": "poolId",
          "type": "uint96"
        },
        {
          "indexed": true,
          "internalType": "contract VToken",
          "name": "vToken",
          "type": "address"
        },
        {
          "indexed": false,
          "internalType": "uint256",
          "name": "oldLiquidationThresholdMantissa",
          "type": "uint256"
        },
        {
          "indexed": false,
          "internalType": "uint256",
          "name": "newLiquidationThresholdMantissa",
          "type": "uint256"
        }
      ],
      "name": "NewLiquidationThreshold",
      "type": "event"
    },
    {
      "anonymous": false,
      "inputs": [
        {
          "indexed": false,
          "internalType": "address",
          "name": "oldLiquidatorContract",
          "type": "address"
        },
        {
          "indexed": false,
          "internalType": "address",
          "name": "newLiquidatorContract",
          "type": "address"
        }
      ],
      "name": "NewLiquidatorContract",
      "type": "event"
    },
    {
      "anonymous": false,
      "inputs": [
        {
          "indexed": false,
          "internalType": "address",
          "name": "oldPauseGuardian",
          "type": "address"
        },
        {
          "indexed": false,
          "internalType": "address",
          "name": "newPauseGuardian",
          "type": "address"
        }
      ],
      "name": "NewPauseGuardian",
      "type": "event"
    },
    {
      "anonymous": false,
      "inputs": [
        {
          "indexed": false,
          "internalType": "contract ResilientOracleInterface",
          "name": "oldPriceOracle",
          "type": "address"
        },
        {
          "indexed": false,
          "internalType": "contract ResilientOracleInterface",
          "name": "newPriceOracle",
          "type": "address"
        }
      ],
      "name": "NewPriceOracle",
      "type": "event"
    },
    {
      "anonymous": false,
      "inputs": [
        {
          "indexed": false,
          "internalType": "contract IPrime",
          "name": "oldPrimeToken",
          "type": "address"
        },
        {
          "indexed": false,
          "internalType": "contract IPrime",
          "name": "newPrimeToken",
          "type": "address"
        }
      ],
      "name": "NewPrimeToken",
      "type": "event"
    },
    {
      "anonymous": false,
      "inputs": [
        {
          "indexed": true,
          "internalType": "contract VToken",
          "name": "vToken",
          "type": "address"
        },
        {
          "indexed": false,
          "internalType": "uint256",
          "name": "newSupplyCap",
          "type": "uint256"
        }
      ],
      "name": "NewSupplyCap",
      "type": "event"
    },
    {
      "anonymous": false,
      "inputs": [
        {
          "indexed": false,
          "internalType": "address",
          "name": "oldTreasuryAddress",
          "type": "address"
        },
        {
          "indexed": false,
          "internalType": "address",
          "name": "newTreasuryAddress",
          "type": "address"
        }
      ],
      "name": "NewTreasuryAddress",
      "type": "event"
    },
    {
      "anonymous": false,
      "inputs": [
        {
          "indexed": false,
          "internalType": "address",
          "name": "oldTreasuryGuardian",
          "type": "address"
        },
        {
          "indexed": false,
          "internalType": "address",
          "name": "newTreasuryGuardian",
          "type": "address"
        }
      ],
      "name": "NewTreasuryGuardian",
      "type": "event"
    },
    {
      "anonymous": false,
      "inputs": [
        {
          "indexed": false,
          "internalType": "uint256",
          "name": "oldTreasuryPercent",
          "type": "uint256"
        },
        {
          "indexed": false,
          "internalType": "uint256",
          "name": "newTreasuryPercent",
          "type": "uint256"
        }
      ],
      "name": "NewTreasuryPercent",
      "type": "event"
    },
    {
      "anonymous": false,
      "inputs": [
        {
          "indexed": false,
          "internalType": "contract VAIControllerInterface",
          "name": "oldVAIController",
          "type": "address"
        },
        {
          "indexed": false,
          "internalType": "contract VAIControllerInterface",
          "name": "newVAIController",
          "type": "address"
        }
      ],
      "name": "NewVAIController",
      "type": "event"
    },
    {
      "anonymous": false,
      "inputs": [
        {
          "indexed": false,
          "internalType": "uint256",
          "name": "oldVAIMintRate",
          "type": "uint256"
        },
        {
          "indexed": false,
          "internalType": "uint256",
          "name": "newVAIMintRate",
          "type": "uint256"
        }
      ],
      "name": "NewVAIMintRate",
      "type": "event"
    },
    {
      "anonymous": false,
      "inputs": [
        {
          "indexed": true,
          "internalType": "address",
          "name": "vault_",
          "type": "address"
        },
        {
          "indexed": false,
          "internalType": "uint256",
          "name": "releaseStartBlock_",
          "type": "uint256"
        },
        {
          "indexed": false,
          "internalType": "uint256",
          "name": "releaseInterval_",
          "type": "uint256"
        }
      ],
      "name": "NewVAIVaultInfo",
      "type": "event"
    },
    {
      "anonymous": false,
      "inputs": [
        {
          "indexed": false,
          "internalType": "uint256",
          "name": "oldVenusVAIVaultRate",
          "type": "uint256"
        },
        {
          "indexed": false,
          "internalType": "uint256",
          "name": "newVenusVAIVaultRate",
          "type": "uint256"
        }
      ],
      "name": "NewVenusVAIVaultRate",
      "type": "event"
    },
    {
      "anonymous": false,
      "inputs": [
        {
          "indexed": true,
          "internalType": "address",
          "name": "oldXVS",
          "type": "address"
        },
        {
          "indexed": true,
          "internalType": "address",
          "name": "newXVS",
          "type": "address"
        }
      ],
      "name": "NewXVSToken",
      "type": "event"
    },
    {
      "anonymous": false,
      "inputs": [
        {
          "indexed": true,
          "internalType": "address",
          "name": "oldXVSVToken",
          "type": "address"
        },
        {
          "indexed": true,
          "internalType": "address",
          "name": "newXVSVToken",
          "type": "address"
        }
      ],
      "name": "NewXVSVToken",
      "type": "event"
    },
    {
      "anonymous": false,
      "inputs": [
        {
          "indexed": true,
          "internalType": "uint96",
          "name": "poolId",
          "type": "uint96"
        },
        {
          "indexed": false,
          "internalType": "bool",
          "name": "oldStatus",
          "type": "bool"
        },
        {
          "indexed": false,
          "internalType": "bool",
          "name": "newStatus",
          "type": "bool"
        }
      ],
      "name": "PoolActiveStatusUpdated",
      "type": "event"
    },
    {
      "anonymous": false,
      "inputs": [
        {
          "indexed": true,
          "internalType": "uint96",
          "name": "poolId",
          "type": "uint96"
        },
        {
          "indexed": false,
          "internalType": "string",
          "name": "label",
          "type": "string"
        }
      ],
      "name": "PoolCreated",
      "type": "event"
    },
    {
      "anonymous": false,
      "inputs": [
        {
          "indexed": true,
          "internalType": "uint96",
          "name": "poolId",
          "type": "uint96"
        },
        {
          "indexed": false,
          "internalType": "bool",
          "name": "oldStatus",
          "type": "bool"
        },
        {
          "indexed": false,
          "internalType": "bool",
          "name": "newStatus",
          "type": "bool"
        }
      ],
      "name": "PoolFallbackStatusUpdated",
      "type": "event"
    },
    {
      "anonymous": false,
      "inputs": [
        {
          "indexed": true,
          "internalType": "uint96",
          "name": "poolId",
          "type": "uint96"
        },
        {
          "indexed": false,
          "internalType": "string",
          "name": "oldLabel",
          "type": "string"
        },
        {
          "indexed": false,
          "internalType": "string",
          "name": "newLabel",
          "type": "string"
        }
      ],
      "name": "PoolLabelUpdated",
      "type": "event"
    },
    {
      "anonymous": false,
      "inputs": [
        {
          "indexed": true,
          "internalType": "uint96",
          "name": "poolId",
          "type": "uint96"
        },
        {
          "indexed": true,
          "internalType": "address",
          "name": "market",
          "type": "address"
        }
      ],
      "name": "PoolMarketInitialized",
      "type": "event"
    },
    {
      "anonymous": false,
      "inputs": [
        {
          "indexed": true,
          "internalType": "uint96",
          "name": "poolId",
          "type": "uint96"
        },
        {
          "indexed": true,
          "internalType": "address",
          "name": "vToken",
          "type": "address"
        }
      ],
      "name": "PoolMarketRemoved",
      "type": "event"
    },
    {
      "anonymous": false,
      "inputs": [
        {
          "indexed": true,
          "internalType": "address",
          "name": "account",
          "type": "address"
        },
        {
          "indexed": false,
          "internalType": "uint96",
          "name": "previousPoolId",
          "type": "uint96"
        },
        {
          "indexed": true,
          "internalType": "uint96",
          "name": "newPoolId",
          "type": "uint96"
        }
      ],
      "name": "PoolSelected",
      "type": "event"
    },
    {
      "anonymous": false,
      "inputs": [
        {
          "indexed": true,
          "internalType": "contract VToken",
          "name": "vToken",
          "type": "address"
        },
        {
          "indexed": false,
          "internalType": "uint256",
          "name": "newSpeed",
          "type": "uint256"
        }
      ],
      "name": "VenusBorrowSpeedUpdated",
      "type": "event"
    },
    {
      "anonymous": false,
      "inputs": [
        {
          "indexed": true,
          "internalType": "address",
          "name": "recipient",
          "type": "address"
        },
        {
          "indexed": false,
          "internalType": "uint256",
          "name": "amount",
          "type": "uint256"
        }
      ],
      "name": "VenusGranted",
      "type": "event"
    },
    {
      "anonymous": false,
      "inputs": [
        {
          "indexed": true,
          "internalType": "address",
          "name": "holder",
          "type": "address"
        },
        {
          "indexed": false,
          "internalType": "uint256",
          "name": "amount",
          "type": "uint256"
        }
      ],
      "name": "VenusSeized",
      "type": "event"
    },
    {
      "anonymous": false,
      "inputs": [
        {
          "indexed": true,
          "internalType": "contract VToken",
          "name": "vToken",
          "type": "address"
        },
        {
          "indexed": false,
          "internalType": "uint256",
          "name": "newSpeed",
          "type": "uint256"
        }
      ],
      "name": "VenusSupplySpeedUpdated",
      "type": "event"
    },
    {
      "stateMutability": "nonpayable",
      "type": "fallback"
    },
    {
      "inputs": [
        {
          "internalType": "contract Unitroller",
          "name": "unitroller",
          "type": "address"
        }
      ],
      "name": "_become",
      "outputs": [],
      "stateMutability": "nonpayable",
      "type": "function"
    },
    {
      "inputs": [
        {
          "internalType": "address",
          "name": "recipient",
          "type": "address"
        },
        {
          "internalType": "uint256",
          "name": "amount",
          "type": "uint256"
        }
      ],
      "name": "_grantXVS",
      "outputs": [],
      "stateMutability": "nonpayable",
      "type": "function"
    },
    {
      "inputs": [
        {
          "internalType": "address",
          "name": "newAccessControlAddress",
          "type": "address"
        }
      ],
      "name": "_setAccessControl",
      "outputs": [
        {
          "internalType": "uint256",
          "name": "",
          "type": "uint256"
        }
      ],
      "stateMutability": "nonpayable",
      "type": "function"
    },
    {
      "inputs": [
        {
          "internalType": "address[]",
          "name": "markets_",
          "type": "address[]"
        },
        {
          "internalType": "enum Action[]",
          "name": "actions_",
          "type": "uint8[]"
        },
        {
          "internalType": "bool",
          "name": "paused_",
          "type": "bool"
        }
      ],
      "name": "_setActionsPaused",
      "outputs": [],
      "stateMutability": "nonpayable",
      "type": "function"
    },
    {
      "inputs": [
        {
          "internalType": "uint256",
          "name": "newCloseFactorMantissa",
          "type": "uint256"
        }
      ],
      "name": "_setCloseFactor",
      "outputs": [
        {
          "internalType": "uint256",
          "name": "",
          "type": "uint256"
        }
      ],
      "stateMutability": "nonpayable",
      "type": "function"
    },
    {
      "inputs": [
        {
          "internalType": "contract ComptrollerLensInterface",
          "name": "comptrollerLens_",
          "type": "address"
        }
      ],
      "name": "_setComptrollerLens",
      "outputs": [
        {
          "internalType": "uint256",
          "name": "",
          "type": "uint256"
        }
      ],
      "stateMutability": "nonpayable",
      "type": "function"
    },
    {
      "inputs": [
        {
          "internalType": "address",
          "name": "vTokenBorrowed",
          "type": "address"
        },
        {
          "internalType": "bool",
          "name": "enable",
          "type": "bool"
        }
      ],
      "name": "_setForcedLiquidation",
      "outputs": [],
      "stateMutability": "nonpayable",
      "type": "function"
    },
    {
      "inputs": [
        {
          "internalType": "address",
          "name": "borrower",
          "type": "address"
        },
        {
          "internalType": "address",
          "name": "vTokenBorrowed",
          "type": "address"
        },
        {
          "internalType": "bool",
          "name": "enable",
          "type": "bool"
        }
      ],
      "name": "_setForcedLiquidationForUser",
      "outputs": [],
      "stateMutability": "nonpayable",
      "type": "function"
    },
    {
      "inputs": [
        {
          "internalType": "address",
          "name": "newLiquidatorContract_",
          "type": "address"
        }
      ],
      "name": "_setLiquidatorContract",
      "outputs": [],
      "stateMutability": "nonpayable",
      "type": "function"
    },
    {
      "inputs": [
        {
          "internalType": "contract VToken[]",
          "name": "vTokens",
          "type": "address[]"
        },
        {
          "internalType": "uint256[]",
          "name": "newBorrowCaps",
          "type": "uint256[]"
        }
      ],
      "name": "_setMarketBorrowCaps",
      "outputs": [],
      "stateMutability": "nonpayable",
      "type": "function"
    },
    {
      "inputs": [
        {
          "internalType": "contract VToken[]",
          "name": "vTokens",
          "type": "address[]"
        },
        {
          "internalType": "uint256[]",
          "name": "newSupplyCaps",
          "type": "uint256[]"
        }
      ],
      "name": "_setMarketSupplyCaps",
      "outputs": [],
      "stateMutability": "nonpayable",
      "type": "function"
    },
    {
      "inputs": [
        {
          "internalType": "address",
          "name": "newPauseGuardian",
          "type": "address"
        }
      ],
      "name": "_setPauseGuardian",
      "outputs": [
        {
          "internalType": "uint256",
          "name": "",
          "type": "uint256"
        }
      ],
      "stateMutability": "nonpayable",
      "type": "function"
    },
    {
      "inputs": [
        {
          "internalType": "contract ResilientOracleInterface",
          "name": "newOracle",
          "type": "address"
        }
      ],
      "name": "_setPriceOracle",
      "outputs": [
        {
          "internalType": "uint256",
          "name": "",
          "type": "uint256"
        }
      ],
      "stateMutability": "nonpayable",
      "type": "function"
    },
    {
      "inputs": [
        {
          "internalType": "contract IPrime",
          "name": "_prime",
          "type": "address"
        }
      ],
      "name": "_setPrimeToken",
      "outputs": [
        {
          "internalType": "uint256",
          "name": "",
          "type": "uint256"
        }
      ],
      "stateMutability": "nonpayable",
      "type": "function"
    },
    {
      "inputs": [
        {
          "internalType": "bool",
          "name": "state",
          "type": "bool"
        }
      ],
      "name": "_setProtocolPaused",
      "outputs": [
        {
          "internalType": "bool",
          "name": "",
          "type": "bool"
        }
      ],
      "stateMutability": "nonpayable",
      "type": "function"
    },
    {
      "inputs": [
        {
          "internalType": "address",
          "name": "newTreasuryGuardian",
          "type": "address"
        },
        {
          "internalType": "address",
          "name": "newTreasuryAddress",
          "type": "address"
        },
        {
          "internalType": "uint256",
          "name": "newTreasuryPercent",
          "type": "uint256"
        }
      ],
      "name": "_setTreasuryData",
      "outputs": [
        {
          "internalType": "uint256",
          "name": "",
          "type": "uint256"
        }
      ],
      "stateMutability": "nonpayable",
      "type": "function"
    },
    {
      "inputs": [
        {
          "internalType": "contract VAIControllerInterface",
          "name": "vaiController_",
          "type": "address"
        }
      ],
      "name": "_setVAIController",
      "outputs": [
        {
          "internalType": "uint256",
          "name": "",
          "type": "uint256"
        }
      ],
      "stateMutability": "nonpayable",
      "type": "function"
    },
    {
      "inputs": [
        {
          "internalType": "uint256",
          "name": "newVAIMintRate",
          "type": "uint256"
        }
      ],
      "name": "_setVAIMintRate",
      "outputs": [
        {
          "internalType": "uint256",
          "name": "",
          "type": "uint256"
        }
      ],
      "stateMutability": "nonpayable",
      "type": "function"
    },
    {
      "inputs": [
        {
          "internalType": "address",
          "name": "vault_",
          "type": "address"
        },
        {
          "internalType": "uint256",
          "name": "releaseStartBlock_",
          "type": "uint256"
        },
        {
          "internalType": "uint256",
          "name": "minReleaseAmount_",
          "type": "uint256"
        }
      ],
      "name": "_setVAIVaultInfo",
      "outputs": [],
      "stateMutability": "nonpayable",
      "type": "function"
    },
    {
      "inputs": [
        {
          "internalType": "contract VToken[]",
          "name": "vTokens",
          "type": "address[]"
        },
        {
          "internalType": "uint256[]",
          "name": "supplySpeeds",
          "type": "uint256[]"
        },
        {
          "internalType": "uint256[]",
          "name": "borrowSpeeds",
          "type": "uint256[]"
        }
      ],
      "name": "_setVenusSpeeds",
      "outputs": [],
      "stateMutability": "nonpayable",
      "type": "function"
    },
    {
      "inputs": [
        {
          "internalType": "uint256",
          "name": "venusVAIVaultRate_",
          "type": "uint256"
        }
      ],
      "name": "_setVenusVAIVaultRate",
      "outputs": [],
      "stateMutability": "nonpayable",
      "type": "function"
    },
    {
      "inputs": [
        {
          "internalType": "address",
          "name": "xvs_",
          "type": "address"
        }
      ],
      "name": "_setXVSToken",
      "outputs": [],
      "stateMutability": "nonpayable",
      "type": "function"
    },
    {
      "inputs": [
        {
          "internalType": "address",
          "name": "xvsVToken_",
          "type": "address"
        }
      ],
      "name": "_setXVSVToken",
      "outputs": [],
      "stateMutability": "nonpayable",
      "type": "function"
    },
    {
      "inputs": [
        {
          "internalType": "contract VToken",
          "name": "vToken",
          "type": "address"
        }
      ],
      "name": "_supportMarket",
      "outputs": [
        {
          "internalType": "uint256",
          "name": "",
          "type": "uint256"
        }
      ],
      "stateMutability": "nonpayable",
      "type": "function"
    },
    {
      "inputs": [
        {
          "internalType": "address",
          "name": "",
          "type": "address"
        },
        {
          "internalType": "uint256",
          "name": "",
          "type": "uint256"
        }
      ],
      "name": "accountAssets",
      "outputs": [
        {
          "internalType": "contract VToken",
          "name": "",
          "type": "address"
        }
      ],
      "stateMutability": "view",
      "type": "function"
    },
    {
      "inputs": [
        {
          "internalType": "address",
          "name": "market",
          "type": "address"
        },
        {
          "internalType": "enum Action",
          "name": "action",
          "type": "uint8"
        }
      ],
      "name": "actionPaused",
      "outputs": [
        {
          "internalType": "bool",
          "name": "",
          "type": "bool"
        }
      ],
      "stateMutability": "view",
      "type": "function"
    },
    {
      "inputs": [
        {
          "internalType": "uint96[]",
          "name": "poolIds",
          "type": "uint96[]"
        },
        {
          "internalType": "address[]",
          "name": "vTokens",
          "type": "address[]"
        }
      ],
      "name": "addPoolMarkets",
      "outputs": [],
      "stateMutability": "nonpayable",
      "type": "function"
    },
    {
      "inputs": [],
      "name": "admin",
      "outputs": [
        {
          "internalType": "address",
          "name": "",
          "type": "address"
        }
      ],
      "stateMutability": "view",
      "type": "function"
    },
    {
      "inputs": [
        {
          "internalType": "uint256",
          "name": "",
          "type": "uint256"
        }
      ],
      "name": "allMarkets",
      "outputs": [
        {
          "internalType": "contract VToken",
          "name": "",
          "type": "address"
        }
      ],
      "stateMutability": "view",
      "type": "function"
    },
    {
      "inputs": [
        {
          "internalType": "address",
          "name": "",
          "type": "address"
        },
        {
          "internalType": "address",
          "name": "",
          "type": "address"
        }
      ],
      "name": "approvedDelegates",
      "outputs": [
        {
          "internalType": "bool",
          "name": "",
          "type": "bool"
        }
      ],
      "stateMutability": "view",
      "type": "function"
    },
    {
      "inputs": [
        {
          "internalType": "address",
          "name": "vToken",
          "type": "address"
        },
        {
          "internalType": "address",
          "name": "borrower",
          "type": "address"
        },
        {
          "internalType": "uint256",
          "name": "borrowAmount",
          "type": "uint256"
        }
      ],
      "name": "borrowAllowed",
      "outputs": [
        {
          "internalType": "uint256",
          "name": "",
          "type": "uint256"
        }
      ],
      "stateMutability": "nonpayable",
      "type": "function"
    },
    {
      "inputs": [],
      "name": "borrowCapGuardian",
      "outputs": [
        {
          "internalType": "address",
          "name": "",
          "type": "address"
        }
      ],
      "stateMutability": "view",
      "type": "function"
    },
    {
      "inputs": [
        {
          "internalType": "address",
          "name": "",
          "type": "address"
        }
      ],
      "name": "borrowCaps",
      "outputs": [
        {
          "internalType": "uint256",
          "name": "",
          "type": "uint256"
        }
      ],
      "stateMutability": "view",
      "type": "function"
    },
    {
      "inputs": [
        {
          "internalType": "address",
          "name": "vToken",
          "type": "address"
        },
        {
          "internalType": "address",
          "name": "borrower",
          "type": "address"
        },
        {
          "internalType": "uint256",
          "name": "borrowAmount",
          "type": "uint256"
        }
      ],
      "name": "borrowVerify",
      "outputs": [],
      "stateMutability": "nonpayable",
      "type": "function"
    },
    {
      "inputs": [
        {
          "internalType": "address",
          "name": "account",
          "type": "address"
        },
        {
          "internalType": "contract VToken",
          "name": "vToken",
          "type": "address"
        }
      ],
      "name": "checkMembership",
      "outputs": [
        {
          "internalType": "bool",
          "name": "",
          "type": "bool"
        }
      ],
      "stateMutability": "view",
      "type": "function"
    },
    {
      "inputs": [
        {
          "internalType": "address[]",
          "name": "holders",
          "type": "address[]"
        },
        {
          "internalType": "contract VToken[]",
          "name": "vTokens",
          "type": "address[]"
        },
        {
          "internalType": "bool",
          "name": "borrowers",
          "type": "bool"
        },
        {
          "internalType": "bool",
          "name": "suppliers",
          "type": "bool"
        },
        {
          "internalType": "bool",
          "name": "collateral",
          "type": "bool"
        }
      ],
      "name": "claimVenus",
      "outputs": [],
      "stateMutability": "nonpayable",
      "type": "function"
    },
    {
      "inputs": [
        {
          "internalType": "address",
          "name": "holder",
          "type": "address"
        },
        {
          "internalType": "contract VToken[]",
          "name": "vTokens",
          "type": "address[]"
        }
      ],
      "name": "claimVenus",
      "outputs": [],
      "stateMutability": "nonpayable",
      "type": "function"
    },
    {
      "inputs": [
        {
          "internalType": "address",
          "name": "holder",
          "type": "address"
        }
      ],
      "name": "claimVenus",
      "outputs": [],
      "stateMutability": "nonpayable",
      "type": "function"
    },
    {
      "inputs": [
        {
          "internalType": "address[]",
          "name": "holders",
          "type": "address[]"
        },
        {
          "internalType": "contract VToken[]",
          "name": "vTokens",
          "type": "address[]"
        },
        {
          "internalType": "bool",
          "name": "borrowers",
          "type": "bool"
        },
        {
          "internalType": "bool",
          "name": "suppliers",
          "type": "bool"
        }
      ],
      "name": "claimVenus",
      "outputs": [],
      "stateMutability": "nonpayable",
      "type": "function"
    },
    {
      "inputs": [
        {
          "internalType": "address",
          "name": "holder",
          "type": "address"
        }
      ],
      "name": "claimVenusAsCollateral",
      "outputs": [],
      "stateMutability": "nonpayable",
      "type": "function"
    },
    {
      "inputs": [],
      "name": "closeFactorMantissa",
      "outputs": [
        {
          "internalType": "uint256",
          "name": "",
          "type": "uint256"
        }
      ],
      "stateMutability": "view",
      "type": "function"
    },
    {
      "inputs": [],
      "name": "comptrollerImplementation",
      "outputs": [
        {
          "internalType": "address",
          "name": "",
          "type": "address"
        }
      ],
      "stateMutability": "view",
      "type": "function"
    },
    {
      "inputs": [],
      "name": "comptrollerLens",
      "outputs": [
        {
          "internalType": "contract ComptrollerLensInterface",
          "name": "",
          "type": "address"
        }
      ],
      "stateMutability": "view",
      "type": "function"
    },
    {
      "inputs": [],
      "name": "corePoolId",
      "outputs": [
        {
          "internalType": "uint96",
          "name": "",
          "type": "uint96"
        }
      ],
      "stateMutability": "view",
      "type": "function"
    },
    {
      "inputs": [
        {
          "internalType": "string",
          "name": "label",
          "type": "string"
        }
      ],
      "name": "createPool",
      "outputs": [
        {
          "internalType": "uint96",
          "name": "",
          "type": "uint96"
        }
      ],
      "stateMutability": "nonpayable",
      "type": "function"
    },
    {
      "inputs": [
        {
          "components": [
            {
              "internalType": "address",
              "name": "facetAddress",
              "type": "address"
            },
            {
              "internalType": "enum IDiamondCut.FacetCutAction",
              "name": "action",
              "type": "uint8"
            },
            {
              "internalType": "bytes4[]",
              "name": "functionSelectors",
              "type": "bytes4[]"
            }
          ],
          "internalType": "struct IDiamondCut.FacetCut[]",
          "name": "diamondCut_",
          "type": "tuple[]"
        }
      ],
      "name": "diamondCut",
      "outputs": [],
      "stateMutability": "nonpayable",
      "type": "function"
    },
    {
      "inputs": [
        {
          "internalType": "address[]",
          "name": "vTokens",
          "type": "address[]"
        }
      ],
      "name": "enterMarkets",
      "outputs": [
        {
          "internalType": "uint256[]",
          "name": "",
          "type": "uint256[]"
        }
      ],
      "stateMutability": "nonpayable",
      "type": "function"
    },
    {
      "inputs": [
        {
          "internalType": "uint96",
          "name": "poolId",
          "type": "uint96"
        }
      ],
      "name": "enterPool",
      "outputs": [],
      "stateMutability": "nonpayable",
      "type": "function"
    },
    {
      "inputs": [
        {
          "internalType": "address",
          "name": "vTokenAddress",
          "type": "address"
        }
      ],
      "name": "exitMarket",
      "outputs": [
        {
          "internalType": "uint256",
          "name": "",
          "type": "uint256"
        }
      ],
      "stateMutability": "nonpayable",
      "type": "function"
    },
    {
      "inputs": [
        {
          "internalType": "bytes4",
          "name": "functionSelector",
          "type": "bytes4"
        }
      ],
      "name": "facetAddress",
      "outputs": [
        {
          "components": [
            {
              "internalType": "address",
              "name": "facetAddress",
              "type": "address"
            },
            {
              "internalType": "uint96",
              "name": "functionSelectorPosition",
              "type": "uint96"
            }
          ],
          "internalType": "struct ComptrollerV13Storage.FacetAddressAndPosition",
          "name": "",
          "type": "tuple"
        }
      ],
      "stateMutability": "view",
      "type": "function"
    },
    {
      "inputs": [],
      "name": "facetAddresses",
      "outputs": [
        {
          "internalType": "address[]",
          "name": "",
          "type": "address[]"
        }
      ],
      "stateMutability": "view",
      "type": "function"
    },
    {
      "inputs": [
        {
          "internalType": "address",
          "name": "facet",
          "type": "address"
        }
      ],
      "name": "facetFunctionSelectors",
      "outputs": [
        {
          "internalType": "bytes4[]",
          "name": "",
          "type": "bytes4[]"
        }
      ],
      "stateMutability": "view",
      "type": "function"
    },
    {
      "inputs": [
        {
          "internalType": "address",
          "name": "facet",
          "type": "address"
        }
      ],
      "name": "facetPosition",
      "outputs": [
        {
          "internalType": "uint256",
          "name": "",
          "type": "uint256"
        }
      ],
      "stateMutability": "view",
      "type": "function"
    },
    {
      "inputs": [],
      "name": "facets",
      "outputs": [
        {
          "components": [
            {
              "internalType": "address",
              "name": "facetAddress",
              "type": "address"
            },
            {
              "internalType": "bytes4[]",
              "name": "functionSelectors",
              "type": "bytes4[]"
            }
          ],
          "internalType": "struct Diamond.Facet[]",
          "name": "",
          "type": "tuple[]"
        }
      ],
      "stateMutability": "view",
      "type": "function"
    },
    {
      "inputs": [
        {
          "internalType": "address",
          "name": "account",
          "type": "address"
        }
      ],
      "name": "getAccountLiquidity",
      "outputs": [
        {
          "internalType": "uint256",
          "name": "",
          "type": "uint256"
        },
        {
          "internalType": "uint256",
          "name": "",
          "type": "uint256"
        },
        {
          "internalType": "uint256",
          "name": "",
          "type": "uint256"
        }
      ],
      "stateMutability": "view",
      "type": "function"
    },
    {
      "inputs": [],
      "name": "getAllMarkets",
      "outputs": [
        {
          "internalType": "contract VToken[]",
          "name": "",
          "type": "address[]"
        }
      ],
      "stateMutability": "view",
      "type": "function"
    },
    {
      "inputs": [
        {
          "internalType": "address",
          "name": "account",
          "type": "address"
        }
      ],
      "name": "getAssetsIn",
      "outputs": [
        {
          "internalType": "contract VToken[]",
          "name": "",
          "type": "address[]"
        }
      ],
      "stateMutability": "view",
      "type": "function"
    },
    {
      "inputs": [
        {
          "internalType": "address",
          "name": "account",
          "type": "address"
        }
      ],
      "name": "getBorrowingPower",
      "outputs": [
        {
          "internalType": "uint256",
          "name": "",
          "type": "uint256"
        },
        {
          "internalType": "uint256",
          "name": "",
          "type": "uint256"
        },
        {
          "internalType": "uint256",
          "name": "",
          "type": "uint256"
        }
      ],
      "stateMutability": "view",
      "type": "function"
    },
    {
      "inputs": [
        {
          "internalType": "address",
          "name": "vToken",
          "type": "address"
        }
      ],
      "name": "getCollateralFactor",
      "outputs": [
        {
          "internalType": "uint256",
          "name": "",
          "type": "uint256"
        }
      ],
      "stateMutability": "view",
      "type": "function"
    },
    {
      "inputs": [
        {
          "internalType": "address",
          "name": "account",
          "type": "address"
        },
        {
          "internalType": "address",
          "name": "vToken",
          "type": "address"
        }
      ],
      "name": "getEffectiveLiquidationIncentive",
      "outputs": [
        {
          "internalType": "uint256",
          "name": "",
          "type": "uint256"
        }
      ],
      "stateMutability": "view",
      "type": "function"
    },
    {
      "inputs": [
        {
          "internalType": "address",
          "name": "account",
          "type": "address"
        },
        {
          "internalType": "address",
          "name": "vToken",
          "type": "address"
        },
        {
          "internalType": "enum WeightFunction",
          "name": "weightingStrategy",
          "type": "uint8"
        }
      ],
      "name": "getEffectiveLtvFactor",
      "outputs": [
        {
          "internalType": "uint256",
          "name": "",
          "type": "uint256"
        }
      ],
      "stateMutability": "view",
      "type": "function"
    },
    {
      "inputs": [
        {
          "internalType": "address",
          "name": "account",
          "type": "address"
        },
        {
          "internalType": "address",
          "name": "vTokenModify",
          "type": "address"
        },
        {
          "internalType": "uint256",
          "name": "redeemTokens",
          "type": "uint256"
        },
        {
          "internalType": "uint256",
          "name": "borrowAmount",
          "type": "uint256"
        }
      ],
      "name": "getHypotheticalAccountLiquidity",
      "outputs": [
        {
          "internalType": "uint256",
          "name": "",
          "type": "uint256"
        },
        {
          "internalType": "uint256",
          "name": "",
          "type": "uint256"
        },
        {
          "internalType": "uint256",
          "name": "",
          "type": "uint256"
        }
      ],
      "stateMutability": "view",
      "type": "function"
    },
    {
      "inputs": [
        {
          "internalType": "address",
          "name": "vToken",
          "type": "address"
        }
      ],
      "name": "getLiquidationIncentive",
      "outputs": [
        {
          "internalType": "uint256",
          "name": "",
          "type": "uint256"
        }
      ],
      "stateMutability": "view",
      "type": "function"
    },
    {
      "inputs": [
        {
          "internalType": "address",
          "name": "vToken",
          "type": "address"
        }
      ],
      "name": "getLiquidationThreshold",
      "outputs": [
        {
          "internalType": "uint256",
          "name": "",
          "type": "uint256"
        }
      ],
      "stateMutability": "view",
      "type": "function"
    },
    {
      "inputs": [
        {
          "internalType": "uint96",
          "name": "poolId",
          "type": "uint96"
        },
        {
          "internalType": "address",
          "name": "vToken",
          "type": "address"
        }
      ],
      "name": "getPoolMarketIndex",
      "outputs": [
        {
          "internalType": "PoolMarketId",
          "name": "",
          "type": "bytes32"
        }
      ],
      "stateMutability": "pure",
      "type": "function"
    },
    {
      "inputs": [
        {
          "internalType": "uint96",
          "name": "poolId",
          "type": "uint96"
        }
      ],
      "name": "getPoolVTokens",
      "outputs": [
        {
          "internalType": "address[]",
          "name": "",
          "type": "address[]"
        }
      ],
      "stateMutability": "view",
      "type": "function"
    },
    {
      "inputs": [],
      "name": "getXVSAddress",
      "outputs": [
        {
          "internalType": "address",
          "name": "",
          "type": "address"
        }
      ],
      "stateMutability": "view",
      "type": "function"
    },
    {
      "inputs": [],
      "name": "getXVSVTokenAddress",
      "outputs": [
        {
          "internalType": "address",
          "name": "",
          "type": "address"
        }
      ],
      "stateMutability": "view",
      "type": "function"
    },
    {
      "inputs": [
        {
          "internalType": "address",
          "name": "account",
          "type": "address"
        },
        {
          "internalType": "uint96",
          "name": "targetPoolId",
          "type": "uint96"
        }
      ],
      "name": "hasValidPoolBorrows",
      "outputs": [
        {
          "internalType": "bool",
          "name": "",
          "type": "bool"
        }
      ],
      "stateMutability": "view",
      "type": "function"
    },
    {
      "inputs": [],
      "name": "isComptroller",
      "outputs": [
        {
          "internalType": "bool",
          "name": "",
          "type": "bool"
        }
      ],
      "stateMutability": "pure",
      "type": "function"
    },
    {
      "inputs": [
        {
          "internalType": "address",
          "name": "",
          "type": "address"
        }
      ],
      "name": "isForcedLiquidationEnabled",
      "outputs": [
        {
          "internalType": "bool",
          "name": "",
          "type": "bool"
        }
      ],
      "stateMutability": "view",
      "type": "function"
    },
    {
      "inputs": [
        {
          "internalType": "address",
          "name": "user",
          "type": "address"
        },
        {
          "internalType": "address",
          "name": "market",
          "type": "address"
        }
      ],
      "name": "isForcedLiquidationEnabledForUser",
      "outputs": [
        {
          "internalType": "bool",
          "name": "",
          "type": "bool"
        }
      ],
      "stateMutability": "view",
      "type": "function"
    },
    {
      "inputs": [
        {
          "internalType": "contract VToken",
          "name": "vToken",
          "type": "address"
        }
      ],
      "name": "isMarketListed",
      "outputs": [
        {
          "internalType": "bool",
          "name": "",
          "type": "bool"
        }
      ],
      "stateMutability": "view",
      "type": "function"
    },
    {
      "inputs": [],
      "name": "lastPoolId",
      "outputs": [
        {
          "internalType": "uint96",
          "name": "",
          "type": "uint96"
        }
      ],
      "stateMutability": "view",
      "type": "function"
    },
    {
      "inputs": [
        {
          "internalType": "address",
          "name": "vTokenBorrowed",
          "type": "address"
        },
        {
          "internalType": "address",
          "name": "vTokenCollateral",
          "type": "address"
        },
        {
          "internalType": "address",
          "name": "liquidator",
          "type": "address"
        },
        {
          "internalType": "address",
          "name": "borrower",
          "type": "address"
        },
        {
          "internalType": "uint256",
          "name": "repayAmount",
          "type": "uint256"
        }
      ],
      "name": "liquidateBorrowAllowed",
      "outputs": [
        {
          "internalType": "uint256",
          "name": "",
          "type": "uint256"
        }
      ],
      "stateMutability": "view",
      "type": "function"
    },
    {
      "inputs": [
        {
          "internalType": "address",
          "name": "vTokenBorrowed",
          "type": "address"
        },
        {
          "internalType": "address",
          "name": "vTokenCollateral",
          "type": "address"
        },
        {
          "internalType": "address",
          "name": "liquidator",
          "type": "address"
        },
        {
          "internalType": "address",
          "name": "borrower",
          "type": "address"
        },
        {
          "internalType": "uint256",
          "name": "actualRepayAmount",
          "type": "uint256"
        },
        {
          "internalType": "uint256",
          "name": "seizeTokens",
          "type": "uint256"
        }
      ],
      "name": "liquidateBorrowVerify",
      "outputs": [],
      "stateMutability": "nonpayable",
      "type": "function"
    },
    {
      "inputs": [
        {
          "internalType": "address",
          "name": "borrower",
          "type": "address"
        },
        {
          "internalType": "address",
          "name": "vTokenBorrowed",
          "type": "address"
        },
        {
          "internalType": "address",
          "name": "vTokenCollateral",
          "type": "address"
        },
        {
          "internalType": "uint256",
          "name": "actualRepayAmount",
          "type": "uint256"
        }
      ],
      "name": "liquidateCalculateSeizeTokens",
      "outputs": [
        {
          "internalType": "uint256",
          "name": "",
          "type": "uint256"
        },
        {
          "internalType": "uint256",
          "name": "",
          "type": "uint256"
        }
      ],
      "stateMutability": "view",
      "type": "function"
    },
    {
      "inputs": [
        {
          "internalType": "address",
          "name": "vTokenBorrowed",
          "type": "address"
        },
        {
          "internalType": "address",
          "name": "vTokenCollateral",
          "type": "address"
        },
        {
          "internalType": "uint256",
          "name": "actualRepayAmount",
          "type": "uint256"
        }
      ],
      "name": "liquidateCalculateSeizeTokens",
      "outputs": [
        {
          "internalType": "uint256",
          "name": "",
          "type": "uint256"
        },
        {
          "internalType": "uint256",
          "name": "",
          "type": "uint256"
        }
      ],
      "stateMutability": "view",
      "type": "function"
    },
    {
      "inputs": [
        {
          "internalType": "address",
          "name": "vTokenCollateral",
          "type": "address"
        },
        {
          "internalType": "uint256",
          "name": "actualRepayAmount",
          "type": "uint256"
        }
      ],
      "name": "liquidateVAICalculateSeizeTokens",
      "outputs": [
        {
          "internalType": "uint256",
          "name": "",
          "type": "uint256"
        },
        {
          "internalType": "uint256",
          "name": "",
          "type": "uint256"
        }
      ],
      "stateMutability": "view",
      "type": "function"
    },
    {
      "inputs": [],
      "name": "liquidatorContract",
      "outputs": [
        {
          "internalType": "address",
          "name": "",
          "type": "address"
        }
      ],
      "stateMutability": "view",
      "type": "function"
    },
    {
      "inputs": [
        {
          "internalType": "address",
          "name": "vToken",
          "type": "address"
        }
      ],
      "name": "markets",
      "outputs": [
        {
          "internalType": "bool",
          "name": "isListed",
          "type": "bool"
        },
        {
          "internalType": "uint256",
          "name": "collateralFactorMantissa",
          "type": "uint256"
        },
        {
          "internalType": "bool",
          "name": "isVenus",
          "type": "bool"
        },
        {
          "internalType": "uint256",
          "name": "liquidationThresholdMantissa",
          "type": "uint256"
        },
        {
          "internalType": "uint256",
          "name": "liquidationIncentiveMantissa",
          "type": "uint256"
        },
        {
          "internalType": "uint96",
          "name": "marketPoolId",
          "type": "uint96"
        },
        {
          "internalType": "bool",
          "name": "isBorrowAllowed",
          "type": "bool"
        }
      ],
      "stateMutability": "view",
      "type": "function"
    },
    {
      "inputs": [],
      "name": "maxAssets",
      "outputs": [
        {
          "internalType": "uint256",
          "name": "",
          "type": "uint256"
        }
      ],
      "stateMutability": "view",
      "type": "function"
    },
    {
      "inputs": [],
      "name": "minReleaseAmount",
      "outputs": [
        {
          "internalType": "uint256",
          "name": "",
          "type": "uint256"
        }
      ],
      "stateMutability": "view",
      "type": "function"
    },
    {
      "inputs": [
        {
          "internalType": "address",
          "name": "vToken",
          "type": "address"
        },
        {
          "internalType": "address",
          "name": "minter",
          "type": "address"
        },
        {
          "internalType": "uint256",
          "name": "mintAmount",
          "type": "uint256"
        }
      ],
      "name": "mintAllowed",
      "outputs": [
        {
          "internalType": "uint256",
          "name": "",
          "type": "uint256"
        }
      ],
      "stateMutability": "nonpayable",
      "type": "function"
    },
    {
      "inputs": [],
      "name": "mintVAIGuardianPaused",
      "outputs": [
        {
          "internalType": "bool",
          "name": "",
          "type": "bool"
        }
      ],
      "stateMutability": "view",
      "type": "function"
    },
    {
      "inputs": [
        {
          "internalType": "address",
          "name": "vToken",
          "type": "address"
        },
        {
          "internalType": "address",
          "name": "minter",
          "type": "address"
        },
        {
          "internalType": "uint256",
          "name": "actualMintAmount",
          "type": "uint256"
        },
        {
          "internalType": "uint256",
          "name": "mintTokens",
          "type": "uint256"
        }
      ],
      "name": "mintVerify",
      "outputs": [],
      "stateMutability": "nonpayable",
      "type": "function"
    },
    {
      "inputs": [
        {
          "internalType": "address",
          "name": "",
          "type": "address"
        }
      ],
      "name": "mintedVAIs",
      "outputs": [
        {
          "internalType": "uint256",
          "name": "",
          "type": "uint256"
        }
      ],
      "stateMutability": "view",
      "type": "function"
    },
    {
      "inputs": [],
      "name": "oracle",
      "outputs": [
        {
          "internalType": "contract ResilientOracleInterface",
          "name": "",
          "type": "address"
        }
      ],
      "stateMutability": "view",
      "type": "function"
    },
    {
      "inputs": [],
      "name": "pauseGuardian",
      "outputs": [
        {
          "internalType": "address",
          "name": "",
          "type": "address"
        }
      ],
      "stateMutability": "view",
      "type": "function"
    },
    {
      "inputs": [],
      "name": "pendingAdmin",
      "outputs": [
        {
          "internalType": "address",
          "name": "",
          "type": "address"
        }
      ],
      "stateMutability": "view",
      "type": "function"
    },
    {
      "inputs": [],
      "name": "pendingComptrollerImplementation",
      "outputs": [
        {
          "internalType": "address",
          "name": "",
          "type": "address"
        }
      ],
      "stateMutability": "view",
      "type": "function"
    },
    {
      "inputs": [
        {
          "internalType": "uint96",
          "name": "poolId",
          "type": "uint96"
        },
        {
          "internalType": "address",
          "name": "vToken",
          "type": "address"
        }
      ],
      "name": "poolMarkets",
      "outputs": [
        {
          "internalType": "bool",
          "name": "isListed",
          "type": "bool"
        },
        {
          "internalType": "uint256",
          "name": "collateralFactorMantissa",
          "type": "uint256"
        },
        {
          "internalType": "bool",
          "name": "isVenus",
          "type": "bool"
        },
        {
          "internalType": "uint256",
          "name": "liquidationThresholdMantissa",
          "type": "uint256"
        },
        {
          "internalType": "uint256",
          "name": "liquidationIncentiveMantissa",
          "type": "uint256"
        },
        {
          "internalType": "uint96",
          "name": "marketPoolId",
          "type": "uint96"
        },
        {
          "internalType": "bool",
          "name": "isBorrowAllowed",
          "type": "bool"
        }
      ],
      "stateMutability": "view",
      "type": "function"
    },
    {
      "inputs": [
        {
          "internalType": "uint96",
          "name": "",
          "type": "uint96"
        }
      ],
      "name": "pools",
      "outputs": [
        {
          "internalType": "string",
          "name": "label",
          "type": "string"
        },
        {
          "internalType": "bool",
          "name": "isActive",
          "type": "bool"
        },
        {
          "internalType": "bool",
          "name": "allowCorePoolFallback",
          "type": "bool"
        }
      ],
      "stateMutability": "view",
      "type": "function"
    },
    {
      "inputs": [],
      "name": "prime",
      "outputs": [
        {
          "internalType": "contract IPrime",
          "name": "",
          "type": "address"
        }
      ],
      "stateMutability": "view",
      "type": "function"
    },
    {
      "inputs": [],
      "name": "protocolPaused",
      "outputs": [
        {
          "internalType": "bool",
          "name": "",
          "type": "bool"
        }
      ],
      "stateMutability": "view",
      "type": "function"
    },
    {
      "inputs": [
        {
          "internalType": "address",
          "name": "vToken",
          "type": "address"
        },
        {
          "internalType": "address",
          "name": "redeemer",
          "type": "address"
        },
        {
          "internalType": "uint256",
          "name": "redeemTokens",
          "type": "uint256"
        }
      ],
      "name": "redeemAllowed",
      "outputs": [
        {
          "internalType": "uint256",
          "name": "",
          "type": "uint256"
        }
      ],
      "stateMutability": "nonpayable",
      "type": "function"
    },
    {
      "inputs": [
        {
          "internalType": "address",
          "name": "vToken",
          "type": "address"
        },
        {
          "internalType": "address",
          "name": "redeemer",
          "type": "address"
        },
        {
          "internalType": "uint256",
          "name": "redeemAmount",
          "type": "uint256"
        },
        {
          "internalType": "uint256",
          "name": "redeemTokens",
          "type": "uint256"
        }
      ],
      "name": "redeemVerify",
      "outputs": [],
      "stateMutability": "nonpayable",
      "type": "function"
    },
    {
      "inputs": [],
      "name": "releaseStartBlock",
      "outputs": [
        {
          "internalType": "uint256",
          "name": "",
          "type": "uint256"
        }
      ],
      "stateMutability": "view",
      "type": "function"
    },
    {
      "inputs": [
        {
          "internalType": "uint96",
          "name": "poolId",
          "type": "uint96"
        },
        {
          "internalType": "address",
          "name": "vToken",
          "type": "address"
        }
      ],
      "name": "removePoolMarket",
      "outputs": [],
      "stateMutability": "nonpayable",
      "type": "function"
    },
    {
      "inputs": [
        {
          "internalType": "address",
          "name": "vToken",
          "type": "address"
        },
        {
          "internalType": "address",
          "name": "payer",
          "type": "address"
        },
        {
          "internalType": "address",
          "name": "borrower",
          "type": "address"
        },
        {
          "internalType": "uint256",
          "name": "repayAmount",
          "type": "uint256"
        }
      ],
      "name": "repayBorrowAllowed",
      "outputs": [
        {
          "internalType": "uint256",
          "name": "",
          "type": "uint256"
        }
      ],
      "stateMutability": "nonpayable",
      "type": "function"
    },
    {
      "inputs": [
        {
          "internalType": "address",
          "name": "vToken",
          "type": "address"
        },
        {
          "internalType": "address",
          "name": "payer",
          "type": "address"
        },
        {
          "internalType": "address",
          "name": "borrower",
          "type": "address"
        },
        {
          "internalType": "uint256",
          "name": "actualRepayAmount",
          "type": "uint256"
        },
        {
          "internalType": "uint256",
          "name": "borrowerIndex",
          "type": "uint256"
        }
      ],
      "name": "repayBorrowVerify",
      "outputs": [],
      "stateMutability": "nonpayable",
      "type": "function"
    },
    {
      "inputs": [],
      "name": "repayVAIGuardianPaused",
      "outputs": [
        {
          "internalType": "bool",
          "name": "",
          "type": "bool"
        }
      ],
      "stateMutability": "view",
      "type": "function"
    },
    {
      "inputs": [
        {
          "internalType": "address",
          "name": "vTokenCollateral",
          "type": "address"
        },
        {
          "internalType": "address",
          "name": "vTokenBorrowed",
          "type": "address"
        },
        {
          "internalType": "address",
          "name": "liquidator",
          "type": "address"
        },
        {
          "internalType": "address",
          "name": "borrower",
          "type": "address"
        },
        {
          "internalType": "uint256",
          "name": "seizeTokens",
          "type": "uint256"
        }
      ],
      "name": "seizeAllowed",
      "outputs": [
        {
          "internalType": "uint256",
          "name": "",
          "type": "uint256"
        }
      ],
      "stateMutability": "nonpayable",
      "type": "function"
    },
    {
      "inputs": [
        {
          "internalType": "address[]",
          "name": "holders",
          "type": "address[]"
        },
        {
          "internalType": "address",
          "name": "recipient",
          "type": "address"
        }
      ],
      "name": "seizeVenus",
      "outputs": [
        {
          "internalType": "uint256",
          "name": "",
          "type": "uint256"
        }
      ],
      "stateMutability": "nonpayable",
      "type": "function"
    },
    {
      "inputs": [
        {
          "internalType": "address",
          "name": "vTokenCollateral",
          "type": "address"
        },
        {
          "internalType": "address",
          "name": "vTokenBorrowed",
          "type": "address"
        },
        {
          "internalType": "address",
          "name": "liquidator",
          "type": "address"
        },
        {
          "internalType": "address",
          "name": "borrower",
          "type": "address"
        },
        {
          "internalType": "uint256",
          "name": "seizeTokens",
          "type": "uint256"
        }
      ],
      "name": "seizeVerify",
      "outputs": [],
      "stateMutability": "nonpayable",
      "type": "function"
    },
    {
      "inputs": [
        {
          "internalType": "address[]",
          "name": "markets_",
          "type": "address[]"
        },
        {
          "internalType": "enum Action[]",
          "name": "actions_",
          "type": "uint8[]"
        },
        {
          "internalType": "bool",
          "name": "paused_",
          "type": "bool"
        }
      ],
      "name": "setActionsPaused",
      "outputs": [],
      "stateMutability": "nonpayable",
      "type": "function"
    },
    {
      "inputs": [
        {
          "internalType": "uint96",
          "name": "poolId",
          "type": "uint96"
        },
        {
          "internalType": "bool",
          "name": "allowFallback",
          "type": "bool"
        }
      ],
      "name": "setAllowCorePoolFallback",
      "outputs": [],
      "stateMutability": "nonpayable",
      "type": "function"
    },
    {
      "inputs": [
        {
          "internalType": "uint256",
          "name": "newCloseFactorMantissa",
          "type": "uint256"
        }
      ],
      "name": "setCloseFactor",
      "outputs": [
        {
          "internalType": "uint256",
          "name": "",
          "type": "uint256"
        }
      ],
      "stateMutability": "nonpayable",
      "type": "function"
    },
    {
      "inputs": [
        {
          "internalType": "contract VToken",
          "name": "vToken",
          "type": "address"
        },
        {
          "internalType": "uint256",
          "name": "newCollateralFactorMantissa",
          "type": "uint256"
        },
        {
          "internalType": "uint256",
          "name": "newLiquidationThresholdMantissa",
          "type": "uint256"
        }
      ],
      "name": "setCollateralFactor",
      "outputs": [
        {
          "internalType": "uint256",
          "name": "",
          "type": "uint256"
        }
      ],
      "stateMutability": "nonpayable",
      "type": "function"
    },
    {
      "inputs": [
        {
          "internalType": "uint96",
          "name": "poolId",
          "type": "uint96"
        },
        {
          "internalType": "contract VToken",
          "name": "vToken",
          "type": "address"
        },
        {
          "internalType": "uint256",
          "name": "newCollateralFactorMantissa",
          "type": "uint256"
        },
        {
          "internalType": "uint256",
          "name": "newLiquidationThresholdMantissa",
          "type": "uint256"
        }
      ],
      "name": "setCollateralFactor",
      "outputs": [
        {
          "internalType": "uint256",
          "name": "",
          "type": "uint256"
        }
      ],
      "stateMutability": "nonpayable",
      "type": "function"
    },
    {
      "inputs": [
        {
          "internalType": "address",
          "name": "vTokenBorrowed",
          "type": "address"
        },
        {
          "internalType": "bool",
          "name": "enable",
          "type": "bool"
        }
      ],
      "name": "setForcedLiquidation",
      "outputs": [],
      "stateMutability": "nonpayable",
      "type": "function"
    },
    {
      "inputs": [
        {
          "internalType": "uint96",
          "name": "poolId",
          "type": "uint96"
        },
        {
          "internalType": "address",
          "name": "vToken",
          "type": "address"
        },
        {
          "internalType": "bool",
          "name": "borrowAllowed",
          "type": "bool"
        }
      ],
      "name": "setIsBorrowAllowed",
      "outputs": [],
      "stateMutability": "nonpayable",
      "type": "function"
    },
    {
      "inputs": [
        {
          "internalType": "uint96",
          "name": "poolId",
          "type": "uint96"
        },
        {
          "internalType": "address",
          "name": "vToken",
          "type": "address"
        },
        {
          "internalType": "uint256",
          "name": "newLiquidationIncentiveMantissa",
          "type": "uint256"
        }
      ],
      "name": "setLiquidationIncentive",
      "outputs": [
        {
          "internalType": "uint256",
          "name": "",
          "type": "uint256"
        }
      ],
      "stateMutability": "nonpayable",
      "type": "function"
    },
    {
      "inputs": [
        {
          "internalType": "address",
          "name": "vToken",
          "type": "address"
        },
        {
          "internalType": "uint256",
          "name": "newLiquidationIncentiveMantissa",
          "type": "uint256"
        }
      ],
      "name": "setLiquidationIncentive",
      "outputs": [
        {
          "internalType": "uint256",
          "name": "",
          "type": "uint256"
        }
      ],
      "stateMutability": "nonpayable",
      "type": "function"
    },
    {
      "inputs": [
        {
          "internalType": "contract VToken[]",
          "name": "vTokens",
          "type": "address[]"
        },
        {
          "internalType": "uint256[]",
          "name": "newBorrowCaps",
          "type": "uint256[]"
        }
      ],
      "name": "setMarketBorrowCaps",
      "outputs": [],
      "stateMutability": "nonpayable",
      "type": "function"
    },
    {
      "inputs": [
        {
          "internalType": "contract VToken[]",
          "name": "vTokens",
          "type": "address[]"
        },
        {
          "internalType": "uint256[]",
          "name": "newSupplyCaps",
          "type": "uint256[]"
        }
      ],
      "name": "setMarketSupplyCaps",
      "outputs": [],
      "stateMutability": "nonpayable",
      "type": "function"
    },
    {
      "inputs": [
        {
          "internalType": "address",
          "name": "owner",
          "type": "address"
        },
        {
          "internalType": "uint256",
          "name": "amount",
          "type": "uint256"
        }
      ],
      "name": "setMintedVAIOf",
      "outputs": [
        {
          "internalType": "uint256",
          "name": "",
          "type": "uint256"
        }
      ],
      "stateMutability": "nonpayable",
      "type": "function"
    },
    {
      "inputs": [
        {
          "internalType": "uint96",
          "name": "poolId",
          "type": "uint96"
        },
        {
          "internalType": "bool",
          "name": "active",
          "type": "bool"
        }
      ],
      "name": "setPoolActive",
      "outputs": [],
      "stateMutability": "nonpayable",
      "type": "function"
    },
    {
      "inputs": [
        {
          "internalType": "uint96",
          "name": "poolId",
          "type": "uint96"
        },
        {
          "internalType": "string",
          "name": "newLabel",
          "type": "string"
        }
      ],
      "name": "setPoolLabel",
      "outputs": [],
      "stateMutability": "nonpayable",
      "type": "function"
    },
    {
      "inputs": [
        {
          "internalType": "contract ResilientOracleInterface",
          "name": "newOracle",
          "type": "address"
        }
      ],
      "name": "setPriceOracle",
      "outputs": [
        {
          "internalType": "uint256",
          "name": "",
          "type": "uint256"
        }
      ],
      "stateMutability": "nonpayable",
      "type": "function"
    },
    {
      "inputs": [
        {
          "internalType": "contract IPrime",
          "name": "_prime",
          "type": "address"
        }
      ],
      "name": "setPrimeToken",
      "outputs": [
        {
          "internalType": "uint256",
          "name": "",
          "type": "uint256"
        }
      ],
      "stateMutability": "nonpayable",
      "type": "function"
    },
    {
      "inputs": [
        {
          "internalType": "address",
          "name": "",
          "type": "address"
        }
      ],
      "name": "supplyCaps",
      "outputs": [
        {
          "internalType": "uint256",
          "name": "",
          "type": "uint256"
        }
      ],
      "stateMutability": "view",
      "type": "function"
    },
    {
      "inputs": [
        {
          "internalType": "contract VToken",
          "name": "vToken",
          "type": "address"
        }
      ],
      "name": "supportMarket",
      "outputs": [
        {
          "internalType": "uint256",
          "name": "",
          "type": "uint256"
        }
      ],
      "stateMutability": "nonpayable",
      "type": "function"
    },
    {
      "inputs": [
        {
          "internalType": "address",
          "name": "vToken",
          "type": "address"
        },
        {
          "internalType": "address",
          "name": "src",
          "type": "address"
        },
        {
          "internalType": "address",
          "name": "dst",
          "type": "address"
        },
        {
          "internalType": "uint256",
          "name": "transferTokens",
          "type": "uint256"
        }
      ],
      "name": "transferAllowed",
      "outputs": [
        {
          "internalType": "uint256",
          "name": "",
          "type": "uint256"
        }
      ],
      "stateMutability": "nonpayable",
      "type": "function"
    },
    {
      "inputs": [
        {
          "internalType": "address",
          "name": "vToken",
          "type": "address"
        },
        {
          "internalType": "address",
          "name": "src",
          "type": "address"
        },
        {
          "internalType": "address",
          "name": "dst",
          "type": "address"
        },
        {
          "internalType": "uint256",
          "name": "transferTokens",
          "type": "uint256"
        }
      ],
      "name": "transferVerify",
      "outputs": [],
      "stateMutability": "nonpayable",
      "type": "function"
    },
    {
      "inputs": [],
      "name": "treasuryAddress",
      "outputs": [
        {
          "internalType": "address",
          "name": "",
          "type": "address"
        }
      ],
      "stateMutability": "view",
      "type": "function"
    },
    {
      "inputs": [],
      "name": "treasuryGuardian",
      "outputs": [
        {
          "internalType": "address",
          "name": "",
          "type": "address"
        }
      ],
      "stateMutability": "view",
      "type": "function"
    },
    {
      "inputs": [],
      "name": "treasuryPercent",
      "outputs": [
        {
          "internalType": "uint256",
          "name": "",
          "type": "uint256"
        }
      ],
      "stateMutability": "view",
      "type": "function"
    },
    {
      "inputs": [
        {
          "internalType": "address",
          "name": "market",
          "type": "address"
        }
      ],
      "name": "unlistMarket",
      "outputs": [
        {
          "internalType": "uint256",
          "name": "",
          "type": "uint256"
        }
      ],
      "stateMutability": "nonpayable",
      "type": "function"
    },
    {
      "inputs": [
        {
          "internalType": "address",
          "name": "delegate",
          "type": "address"
        },
        {
          "internalType": "bool",
          "name": "approved",
          "type": "bool"
        }
      ],
      "name": "updateDelegate",
      "outputs": [],
      "stateMutability": "nonpayable",
      "type": "function"
    },
    {
      "inputs": [
        {
          "internalType": "address",
          "name": "",
          "type": "address"
        }
      ],
      "name": "userPoolId",
      "outputs": [
        {
          "internalType": "uint96",
          "name": "",
          "type": "uint96"
        }
      ],
      "stateMutability": "view",
      "type": "function"
    },
    {
      "inputs": [],
      "name": "vaiController",
      "outputs": [
        {
          "internalType": "contract VAIControllerInterface",
          "name": "",
          "type": "address"
        }
      ],
      "stateMutability": "view",
      "type": "function"
    },
    {
      "inputs": [],
      "name": "vaiMintRate",
      "outputs": [
        {
          "internalType": "uint256",
          "name": "",
          "type": "uint256"
        }
      ],
      "stateMutability": "view",
      "type": "function"
    },
    {
      "inputs": [],
      "name": "vaiVaultAddress",
      "outputs": [
        {
          "internalType": "address",
          "name": "",
          "type": "address"
        }
      ],
      "stateMutability": "view",
      "type": "function"
    },
    {
      "inputs": [
        {
          "internalType": "address",
          "name": "",
          "type": "address"
        }
      ],
      "name": "venusAccrued",
      "outputs": [
        {
          "internalType": "uint256",
          "name": "",
          "type": "uint256"
        }
      ],
      "stateMutability": "view",
      "type": "function"
    },
    {
      "inputs": [
        {
          "internalType": "address",
          "name": "",
          "type": "address"
        }
      ],
      "name": "venusBorrowSpeeds",
      "outputs": [
        {
          "internalType": "uint256",
          "name": "",
          "type": "uint256"
        }
      ],
      "stateMutability": "view",
      "type": "function"
    },
    {
      "inputs": [
        {
          "internalType": "address",
          "name": "",
          "type": "address"
        }
      ],
      "name": "venusBorrowState",
      "outputs": [
        {
          "internalType": "uint224",
          "name": "index",
          "type": "uint224"
        },
        {
          "internalType": "uint32",
          "name": "block",
          "type": "uint32"
        }
      ],
      "stateMutability": "view",
      "type": "function"
    },
    {
      "inputs": [
        {
          "internalType": "address",
          "name": "",
          "type": "address"
        },
        {
          "internalType": "address",
          "name": "",
          "type": "address"
        }
      ],
      "name": "venusBorrowerIndex",
      "outputs": [
        {
          "internalType": "uint256",
          "name": "",
          "type": "uint256"
        }
      ],
      "stateMutability": "view",
      "type": "function"
    },
    {
      "inputs": [],
      "name": "venusInitialIndex",
      "outputs": [
        {
          "internalType": "uint224",
          "name": "",
          "type": "uint224"
        }
      ],
      "stateMutability": "view",
      "type": "function"
    },
    {
      "inputs": [
        {
          "internalType": "address",
          "name": "",
          "type": "address"
        },
        {
          "internalType": "address",
          "name": "",
          "type": "address"
        }
      ],
      "name": "venusSupplierIndex",
      "outputs": [
        {
          "internalType": "uint256",
          "name": "",
          "type": "uint256"
        }
      ],
      "stateMutability": "view",
      "type": "function"
    },
    {
      "inputs": [
        {
          "internalType": "address",
          "name": "",
          "type": "address"
        }
      ],
      "name": "venusSupplySpeeds",
      "outputs": [
        {
          "internalType": "uint256",
          "name": "",
          "type": "uint256"
        }
      ],
      "stateMutability": "view",
      "type": "function"
    },
    {
      "inputs": [
        {
          "internalType": "address",
          "name": "",
          "type": "address"
        }
      ],
      "name": "venusSupplyState",
      "outputs": [
        {
          "internalType": "uint224",
          "name": "index",
          "type": "uint224"
        },
        {
          "internalType": "uint32",
          "name": "block",
          "type": "uint32"
        }
      ],
      "stateMutability": "view",
      "type": "function"
    },
    {
      "inputs": [],
      "name": "venusVAIVaultRate",
      "outputs": [
        {
          "internalType": "uint256",
          "name": "",
          "type": "uint256"
        }
      ],
      "stateMutability": "view",
      "type": "function"
    }
  ],
  "bytecode": "0x6080604052348015600e575f80fd5b5061a1ea8061001c5f395ff3fe608060405234801561000f575f80fd5b5060043610610832575f3560e01c806389c13be011610435578063c299823811610234578063dce1544911610139578063ede4edd0116100c1578063f519fc3011610090578063f519fc30146114e4578063f851a440146114f7578063f968273214611509578063fa6331d81461151c578063fd51a3ad1461152557610832565b8063ede4edd014611480578063ededbae614611493578063f02fdf97146114a4578063f445d703146114b757610832565b8063e57e69c611610108578063e57e69c61461142b578063e85a29601461143e578063e875544614611451578063eabe7d911461145a578063ead1a8a01461146d57610832565b8063dce15449146113bb578063dcfbc0c7146113ce578063ddbf54fd146113e1578063e37d4b79146113f457610832565b8063d09c54ba116101bc578063d24febad1161018b578063d24febad14611368578063d3270f991461137b578063d463654c1461138e578063d686e9ee14611395578063da3d454c146113a857610832565b8063d09c54ba1461132f578063d0d1303614611342578063d136af4414610c8c578063d137f36e1461135557610832565b8063c5f956af11610203578063c5f956af14611260578063c7ee005e14611273578063cab4f84c14611073578063cdffacc614611286578063d02f73511461131c57610832565b8063c299823814611200578063c32094c714610fc3578063c488847b14611220578063c5b4db551461123357610832565b8063a7604b411161033a578063b2eafc39116102c2578063bb85745011610291578063bb857450146111a1578063bbb8864a146111b4578063bdcdc258146111d3578063bec04f72146111e6578063bf32442d146111ef57610832565b8063b2eafc391461110d578063b8324c7c14611120578063b88d846b1461117b578063bb82aa5e1461118e57610832565b8063abfceffc11610309578063abfceffc146110ac578063adcd5fb9146110bf578063adfca15e146110d2578063afd3783b146110f2578063b0772d0b1461110557610832565b8063a7604b4114611060578063a76b3fda14611073578063a78dc77514611086578063a89766dd1461109957610832565b8063929fe9a1116103bd5780639bb27d621161038c5780639bb27d62146110015780639bd8f6e8146110145780639bf34cbb146110275780639cfdd9e61461103a578063a657e5791461104d57610832565b8063929fe9a114610fb05780639460c8b514610fc357806394b2294b14610fd657806396c9906414610fdf57610832565b80638e8f294b116104045780638e8f294b14610f395780638f738f3614610f4c5780639159b17714610f77578063919a373614610f8a5780639254f5e514610f9d57610832565b806389c13be014610ee55780638a7dc16514610ef85780638b3113f614610cb25780638c1ac18a14610f1757610832565b80634d99c776116106415780635fc7e71e1161054657806373769099116104ce5780637a0ed6271161049d5780637a0ed62714610e845780637b86e42c14610e995780637d172bd514610eac5780637dc0d1d014610ebf57806386df31ee14610ed257610832565b80637376909914610e0c5780637655138314610e4c5780637858524d14610e5e5780637938146f14610e7157610832565b80636662c7c9116105155780636662c7c914610db75780636a56947e14610dca5780636d35bf9114610ddd57806370bf66f014610df0578063719f701b14610e0357610832565b80635fc7e71e14610d7e578063607ef6c1146109d557806363e0d63414610d91578063655f072514610da457610832565b806352d84d1e116105c95780635c778605116105985780635c77860514610d135780635cc4fdeb14610d265780635dd3fc9d14610d395780635ec88c7914610d585780635f5af1aa14610d6b57610832565b806352d84d1e14610cd857806352ef6b2c14610ceb578063530e784f14610d0057806355ee1fe114610d0057610832565b80634ef4c3e1116106105780634ef4c3e114610c7957806351a485e414610c8c57806351dff98914610c9f578063522c656b14610cb2578063528a174c14610cc557610832565b80634d99c77614610c125780634e0853db14610c255780634e79238f14610c385780634ef233fc14610c6657610832565b806324a3d6221161074757806335439240116106cf57806341c728b91161069e57806341c728b914610ba7578063425fad5814610bba57806347ef3b3b14610bcd5780634964f48c14610be05780634a58443214610bf357610832565b80633543924014610b4a5780633d98a1e514610b5d5780634088c73e14610b7057806341a18d2c14610b7d57610832565b80632b5d790c116107165780632b5d790c14610a855780632bc7e29e14610abe5780632ec0412414610add5780633093c11e14610af0578063317b0b77146109af57610832565b806324a3d62214610a7257806324aaa22014610a855780632678224714610a985780632a6a606514610aab57610832565b806312348e96116107ca5780631d504dc6116107995780631d504dc6146109fb5780631ededc9114610a0e57806321af456914610a215780632361758514610a4c57806324008a6214610a5f57610832565b806312348e96146109af57806317db2163146109c2578063186db48f146109d557806319ef3e8b146109e857610832565b806308e0225c1161080657806308e0225c146109275780630db4b4e5146109515780630ef332ca1461095a57806310b983381461098257610832565b80627e3dd2146108c657806302c3bcbb146108de57806304ef9d581461090b5780630686dab614610914575b5f80356001600160e01b0319168152602e60205260409020546001600160a01b0316806108a65760405162461bcd60e51b815260206004820181905260248201527f4469616d6f6e643a2046756e6374696f6e20646f6573206e6f7420657869737460448201526064015b60405180910390fd5b365f80375f80365f845af43d5f803e8080156108c0573d5ff35b3d5ffd5b005b60015b60405190151581526020015b60405180910390f35b6108fd6108ec366004618aba565b60276020525f908152604090205481565b6040519081526020016108d5565b6108fd60225481565b6108fd610922366004618aba565b611538565b6108fd610935366004618ad5565b601360209081525f928352604080842090915290825290205481565b6108fd601d5481565b61096d610968366004618b0c565b6119f9565b604080519283526020830191909152016108d5565b6108c9610990366004618ad5565b602c60209081525f928352604080842090915290825290205460ff1681565b6108fd6109bd366004618b5a565b611a96565b6108c46109d0366004618b7e565b611aa6565b6108c46109e3366004618c06565b611b5a565b6108fd6109f6366004618c6c565b611bcb565b6108c4610a09366004618aba565b611c5d565b6108c4610a1c366004618cac565b611dbb565b601e54610a34906001600160a01b031681565b6040516001600160a01b0390911681526020016108d5565b6108fd610a5a366004618aba565b611e33565b6108fd610a6d366004618b0c565b611e49565b600a54610a34906001600160a01b031681565b6108c4610a93366004618d03565b611efc565b600154610a34906001600160a01b031681565b6108c9610ab9366004618d80565b611f69565b6108fd610acc366004618aba565b60166020525f908152604090205481565b6108fd610aeb366004618b5a565b611fff565b610b03610afe366004618db6565b612079565b604080519715158852602088019690965293151594860194909452606085019190915260808401526001600160601b0390911660a0830152151560c082015260e0016108d5565b6108fd610b58366004618dd0565b61213e565b6108c9610b6b366004618aba565b61216b565b6018546108c99060ff1681565b6108fd610b8b366004618ad5565b601260209081525f928352604080842090915290825290205481565b6108c4610bb5366004618e0c565b61217f565b6018546108c99062010000900460ff1681565b6108c4610bdb366004618e4f565b6121f5565b6108c4610bee366004618eb9565b6122cd565b6108fd610c01366004618aba565b601f6020525f908152604090205481565b6108fd610c20366004618db6565b612402565b6108c4610c33366004618ee3565b61241f565b610c4b610c46366004618e0c565b6124e2565b604080519384526020840192909252908201526060016108d5565b6108c4610c74366004618aba565b61251c565b6108fd610c87366004618f15565b61264a565b6108c4610c9a366004618c06565b61281b565b6108c4610cad366004618e0c565b612886565b6108c4610cc0366004618f32565b6128d2565b610c4b610cd3366004618aba565b6128e0565b610a34610ce6366004618b5a565b6128fa565b610cf3612922565b6040516108d59190618f4e565b6108fd610d0e366004618aba565b612982565b6108c4610d21366004618f15565b61298c565b6108fd610d34366004618ee3565b612a02565b6108fd610d47366004618aba565b602b6020525f908152604090205481565b610c4b610d66366004618aba565b612a30565b6108fd610d79366004618aba565b612a3e565b6108fd610d8c366004618f9a565b612ad5565b610cf3610d9f366004618ffa565b612d25565b6108fd610db2366004619013565b612dfe565b6108c4610dc5366004618b5a565b613003565b6108c4610dd8366004618b0c565b61308f565b6108c4610deb366004618f9a565b613131565b6108c4610dfe36600461915d565b6131d3565b6108fd601c5481565b610e34610e1a366004618aba565b60356020525f90815260409020546001600160601b031681565b6040516001600160601b0390911681526020016108d5565b6018546108c990610100900460ff1681565b6108c4610e6c366004618aba565b613279565b6108c4610e7f366004618eb9565b613334565b610e8c61345b565b6040516108d5919061922a565b6108fd610ea7366004618aba565b6135de565b601b54610a34906001600160a01b031681565b600454610a34906001600160a01b031681565b6108c4610ee03660046192a7565b6135f3565b6108c4610ef3366004618c06565b613654565b6108fd610f06366004618aba565b60146020525f908152604090205481565b6108c9610f25366004618aba565b602d6020525f908152604090205460ff1681565b610b03610f47366004618aba565b613709565b6108fd610f5a366004618aba565b6001600160a01b03165f908152602f602052604090206001015490565b6108fd610f853660046192f3565b613731565b6108c4610f98366004618aba565b61375f565b601554610a34906001600160a01b031681565b6108c9610fbe366004618ad5565b6137cb565b6108fd610fd1366004618aba565b6137fa565b6108fd60075481565b610ff2610fed366004618ffa565b613804565b6040516108d59392919061933d565b602554610a34906001600160a01b031681565b6108fd611022366004619366565b6138b1565b6108fd611035366004618aba565b6138de565b6108fd611048366004618aba565b613974565b603754610e34906001600160601b031681565b6108c461106e366004619366565b613a0b565b6108fd611081366004618aba565b613aa1565b61096d611094366004619366565b613aab565b6108c46110a7366004619390565b613b38565b610cf36110ba366004618aba565b613c79565b6108c46110cd366004618aba565b613dd5565b6110e56110e0366004618aba565b613e37565b6040516108d591906193ab565b6108fd611100366004618ad5565b613eca565b610cf3613f01565b602054610a34906001600160a01b031681565b61115761112e366004618aba565b60106020525f90815260409020546001600160e01b03811690600160e01b900463ffffffff1682565b604080516001600160e01b03909316835263ffffffff9091166020830152016108d5565b6108c46111893660046193bd565b613f5f565b600254610a34906001600160a01b031681565b6108c46111af366004618aba565b6140c3565b6108fd6111c2366004618aba565b602a6020525f908152604090205481565b6108fd6111e1366004618b0c565b614158565b6108fd60175481565b6033546001600160a01b0316610a34565b61121361120e366004619438565b6141a4565b6040516108d59190619476565b61096d61122e366004618f15565b61425c565b6112486a0c097ce7bc90715b34b9f160241b81565b6040516001600160e01b0390911681526020016108d5565b602154610a34906001600160a01b031681565b603154610a34906001600160a01b031681565b6112ef6112943660046194c4565b604080518082019091525f8082526020820152506001600160e01b0319165f908152602e60209081526040918290208251808401909352546001600160a01b0381168352600160a01b90046001600160601b03169082015290565b6040805182516001600160a01b031681526020928301516001600160601b031692810192909252016108d5565b6108fd61132a366004618f9a565b6142f0565b6108c461133d3660046194dd565b614469565b610e34611350366004619560565b614476565b6108c4611363366004618db6565b61457c565b6108fd611376366004618f15565b6147d6565b602654610a34906001600160a01b031681565b610e345f81565b6108fd6113a3366004618aba565b61493d565b6108fd6113b6366004618f15565b614949565b610a346113c9366004619366565b614cb8565b600354610a34906001600160a01b031681565b6108c46113ef366004618f32565b614cec565b611157611402366004618aba565b60116020525f90815260409020546001600160e01b03811690600160e01b900463ffffffff1682565b6108c46114393660046195ee565b614d7a565b6108c961144c36600461974e565b614dd8565b6108fd60055481565b6108fd611468366004618f15565b614e1c565b6108c461147b36600461977d565b614e68565b6108fd61148e366004618aba565b614f3d565b6034546001600160a01b0316610a34565b6108c96114b236600461980f565b6151dc565b6108c96114c5366004618ad5565b603260209081525f928352604080842090915290825290205460ff1681565b6108fd6114f2366004618aba565b61536b565b5f54610a34906001600160a01b031681565b6108c4611517366004618ffa565b615402565b6108fd601a5481565b6108fd611533366004619366565b6155c1565b5f61156f60405180604001604052806015815260200174756e6c6973744d61726b657428616464726573732960581b815250615665565b5f61157983615712565b805490915060ff166115985761159160096018615734565b9392505050565b6115a3836002614dd8565b6115ef5760405162461bcd60e51b815260206004820152601b60248201527f626f72726f7720616374696f6e206973206e6f74207061757365640000000000604482015260640161089d565b6115f9835f614dd8565b6116455760405162461bcd60e51b815260206004820152601960248201527f6d696e7420616374696f6e206973206e6f742070617573656400000000000000604482015260640161089d565b611650836001614dd8565b61169c5760405162461bcd60e51b815260206004820152601b60248201527f72656465656d20616374696f6e206973206e6f74207061757365640000000000604482015260640161089d565b6116a7836003614dd8565b6116f35760405162461bcd60e51b815260206004820152601a60248201527f726570617920616374696f6e206973206e6f7420706175736564000000000000604482015260640161089d565b6116fe836007614dd8565b6117545760405162461bcd60e51b815260206004820152602160248201527f656e746572206d61726b657420616374696f6e206973206e6f742070617573656044820152601960fa1b606482015260840161089d565b61175f836005614dd8565b6117ab5760405162461bcd60e51b815260206004820152601e60248201527f6c697175696461746520616374696f6e206973206e6f74207061757365640000604482015260640161089d565b6117b6836004614dd8565b6118025760405162461bcd60e51b815260206004820152601a60248201527f7365697a6520616374696f6e206973206e6f7420706175736564000000000000604482015260640161089d565b61180d836006614dd8565b6118595760405162461bcd60e51b815260206004820152601d60248201527f7472616e7366657220616374696f6e206973206e6f7420706175736564000000604482015260640161089d565b611864836008614dd8565b6118b05760405162461bcd60e51b815260206004820181905260248201527f65786974206d61726b657420616374696f6e206973206e6f7420706175736564604482015260640161089d565b6001600160a01b0383165f908152601f60205260409020541561190b5760405162461bcd60e51b81526020600482015260136024820152720626f72726f7720636170206973206e6f74203606c1b604482015260640161089d565b6001600160a01b0383165f90815260276020526040902054156119665760405162461bcd60e51b81526020600482015260136024820152720737570706c7920636170206973206e6f74203606c1b604482015260640161089d565b6001810154156119b85760405162461bcd60e51b815260206004820152601a60248201527f636f6c6c61746572616c20666163746f72206973206e6f742030000000000000604482015260640161089d565b805460ff191681556040516001600160a01b038416907f302feb03efd5741df80efe7f97f5d93d74d46a542a3d312d0faae64fa1f3e0e9905f90a25f611591565b602654604051630a5d5a0560e41b81526001600160a01b03868116600483015230602483015285811660448301528481166064830152608482018490525f92839283928392169063a5d5a0509060a4016040805180830381865afa158015611a63573d5f803e3d5ffd5b505050506040513d601f19601f82011682018060405250810190611a879190619856565b90999098509650505050505050565b5f611aa0826157ab565b92915050565b611ac7604051806060016040528060328152602001619fc160329139615665565b6015546001600160a01b03838116911614611aed57611aed611ae883615712565b61587e565b6001600160a01b038381165f81815260326020908152604080832094871680845294825291829020805460ff191686151590811790915591519182527fc080966e9e93529edc1b244180c245bc60f3d86f1e690a17651a5e428746a8cd91015b60405180910390a3505050565b611bc58484808060200260200160405190810160405280939291908181526020018383602002808284375f92019190915250506040805160208088028281018201909352878252909350879250869182918501908490808284375f920191909152506158c392505050565b50505050565b6001600160a01b0383165f9081526035602052604081205481908190611bfa906001600160601b0316866159f3565b5090925090505f846001811115611c1357611c13619842565b03611c2057509050611591565b6001846001811115611c3457611c34619842565b03611c425791506115919050565b83604051632f03799f60e11b815260040161089d919061988c565b806001600160a01b031663f851a4406040518163ffffffff1660e01b8152600401602060405180830381865afa158015611c99573d5f803e3d5ffd5b505050506040513d601f19601f82011682018060405250810190611cbd919061989a565b6001600160a01b0316336001600160a01b031614611d195760405162461bcd60e51b815260206004820152601960248201527837b7363c903ab734ba3937b63632b91030b236b4b71031b0b760391b604482015260640161089d565b806001600160a01b031663c1e803346040518163ffffffff1660e01b81526004016020604051808303815f875af1158015611d56573d5f803e3d5ffd5b505050506040513d601f19601f82011682018060405250810190611d7a91906198b5565b15611db85760405162461bcd60e51b815260206004820152600e60248201526d1b9bdd08185d5d1a1bdc9a5e995960921b604482015260640161089d565b50565b6031546001600160a01b031615611e2c576031546040516367994e8b60e11b81526001600160a01b039091169063cf329d1690611dfe90869089906004016198cc565b5f604051808303815f87803b158015611e15575f80fd5b505af1158015611e27573d5f803e3d5ffd5b505050505b5050505050565b5f80611e3f5f846159f3565b5090949350505050565b5f611e52615aa5565b611e5d856003615af5565b611e69611ae886615712565b5f6040518060200160405280876001600160a01b031663aa5af0fd6040518163ffffffff1660e01b8152600401602060405180830381865afa158015611eb1573d5f803e3d5ffd5b505050506040513d601f19601f82011682018060405250810190611ed591906198b5565b90529050611ee38682615b3f565b611eee868583615cd6565b5f5b9150505b949350505050565b611e2c8585808060200260200160405190810160405280939291908181526020018383602002808284375f92019190915250506040805160208089028281018201909352888252909350889250879182918501908490808284375f92019190915250869250615e5a915050565b5f611fa86040518060400160405280601881526020017f5f73657450726f746f636f6c50617573656428626f6f6c290000000000000000815250615665565b60188054831515620100000262ff0000199091161790556040517fd7500633dd3ddd74daa7af62f8c8404c7fe4a81da179998db851696bed004b3890611ff390841515815260200190565b60405180910390a15090565b5f601754828082036120235760405162461bcd60e51b815260040161089d906198e6565b61202b615ee1565b601780549085905560408051828152602081018790527f73747d68b346dce1e932bcd238282e7ac84c01569e1f8d0469c222fdc6e9d5a491015b60405180910390a15f9350505b5050919050565b5f805f805f805f60375f9054906101000a90046001600160601b03166001600160601b0316896001600160601b031611156120d257604051632db8671b60e11b81526001600160601b038a16600482015260240161089d565b5f6120dd8a8a612402565b5f9081526009602052604090208054600182015460038301546004840154600585015460069095015460ff9485169d50929b50908316995097509195506001600160601b0382169450600160601b9091041691505092959891949750929550565b5f6121606040518060600160405280602f815260200161a01c602f9139615665565b611ef4848484615f2b565b5f61217582615712565b5460ff1692915050565b6031546001600160a01b031615611bc5576031546040516367994e8b60e11b81526001600160a01b039091169063cf329d16906121c290869088906004016198cc565b5f604051808303815f87803b1580156121d9575f80fd5b505af11580156121eb573d5f803e3d5ffd5b5050505050505050565b6031546001600160a01b0316156122c5576031546040516367994e8b60e11b81526001600160a01b039091169063cf329d16906122389086908a906004016198cc565b5f604051808303815f87803b15801561224f575f80fd5b505af1158015612261573d5f803e3d5ffd5b50506031546040516367994e8b60e11b81526001600160a01b03909116925063cf329d1691506122979087908a906004016198cc565b5f604051808303815f87803b1580156122ae575f80fd5b505af11580156122c0573d5f803e3d5ffd5b505050505b505050505050565b61230b6040518060400160405280601a81526020017f736574506f6f6c4163746976652875696e7439362c626f6f6c29000000000000815250615665565b6037546001600160601b03908116908316111561234657604051632db8671b60e11b81526001600160601b038316600482015260240161089d565b6001600160601b03821661236d57604051630203217b60e61b815260040160405180910390fd5b6001600160601b0382165f908152603660205260409020600281015482151560ff90911615150361239d57505050565b60028101546040805160ff9092161515825283151560208301526001600160601b038516917f75e42fceb039532886a9d75717e843bfef67fd7f6f91f0fc5b1d48e9ce8a1ba9910160405180910390a2600201805460ff191691151591909117905550565b6001600160a01b031660a09190911b6001600160a01b0319161790565b601b546001600160a01b03908116908490811682036124505760405162461bcd60e51b815260040161089d9061991d565b612458615ee1565b6124618561607d565b601b546001600160a01b03161561247a5761247a6160cb565b601b80546001600160a01b0319166001600160a01b038716908117909155601c859055601d84905560408051868152602081018690527f7059037d74ee16b0fb06a4a30f3348dd2635f301f92e373c92899a25a522ef6e910160405180910390a25050505050565b5f805f805f806124f58a8a8a8a5f61623d565b92509250925082601481111561250d5761250d619842565b9a919950975095505050505050565b612524615ee1565b61252d8161607d565b5f816001600160a01b0316636f307dc36040518163ffffffff1660e01b8152600401602060405180830381865afa15801561256a573d5f803e3d5ffd5b505050506040513d601f19601f8201168201806040525081019061258e919061989a565b6033549091506001600160a01b038083169116146125ee5760405162461bcd60e51b815260206004820152601a60248201527f696e76616c6964207876732076746f6b656e2061646472657373000000000000604482015260640161089d565b6034546040516001600160a01b038085169216907f2565e1579c0926afb7113edbfd85373e85cadaa3e0346f04de19686a2bb86ed1905f90a350603480546001600160a01b0319166001600160a01b0392909216919091179055565b5f612653615aa5565b61265d845f615af5565b612669611ae885615712565b6001600160a01b0384165f90815260276020526040812054908190036126ca5760405162461bcd60e51b815260206004820152601660248201527506d61726b657420737570706c792063617020697320360541b604482015260640161089d565b5f856001600160a01b03166318160ddd6040518163ffffffff1660e01b8152600401602060405180830381865afa158015612707573d5f803e3d5ffd5b505050506040513d601f19601f8201168201806040525081019061272b91906198b5565b90505f6040518060200160405280886001600160a01b031663182df0f56040518163ffffffff1660e01b8152600401602060405180830381865afa158015612775573d5f803e3d5ffd5b505050506040513d601f19601f8201168201806040525081019061279991906198b5565b905290505f6127a98284886162ea565b9050838111156127fb5760405162461bcd60e51b815260206004820152601960248201527f6d61726b657420737570706c7920636170207265616368656400000000000000604482015260640161089d565b6128048861630a565b61280e8888616477565b5f98975050505050505050565b611bc58484808060200260200160405190810160405280939291908181526020018383602002808284375f92019190915250506040805160208088028281018201909352878252909350879250869182918501908490808284375f9201919091525061661592505050565b80151580612892575081155b61217f5760405162461bcd60e51b815260206004820152601160248201527072656465656d546f6b656e73207a65726f60781b604482015260640161089d565b6128dc8282616745565b5050565b5f805f6128ed845f6167e5565b9250925092509193909250565b600d8181548110612909575f80fd5b5f918252602090912001546001600160a01b0316905081565b6060603080548060200260200160405190810160405280929190818152602001828054801561297857602002820191905f5260205f20905b81546001600160a01b0316815260019091019060200180831161295a575b5050505050905090565b5f611aa08261681d565b6031546001600160a01b0316156129fd576031546040516367994e8b60e11b81526001600160a01b039091169063cf329d16906129cf90859087906004016198cc565b5f604051808303815f87803b1580156129e6575f80fd5b505af11580156129f8573d5f803e3d5ffd5b505050505b505050565b5f612a246040518060600160405280602c815260200161a097602c9139615665565b611ef45f8585856168b4565b5f805f6128ed8460016167e5565b600a545f906001600160a01b0390811690839081168203612a715760405162461bcd60e51b815260040161089d9061991d565b612a79615ee1565b612a828461607d565b600a80546001600160a01b038681166001600160a01b03198316179092556040519116907f0613b6ee6a04f0d09f390e4d9318894b9f6ac7fd83897cd8d18896ba579c401e9061206590839088906198cc565b5f612ade615aa5565b612ae9866005615af5565b6025546001600160a01b031615801590612b1157506025546001600160a01b03858116911614155b15612b1e57506001612d1c565b612b2a611ae886615712565b6015545f906001600160a01b03888116911614612bbc57612b4d611ae888615712565b6040516395dd919360e01b81526001600160a01b0385811660048301528816906395dd919390602401602060405180830381865afa158015612b91573d5f803e3d5ffd5b505050506040513d601f19601f82011682018060405250810190612bb591906198b5565b9050612c2b565b601554604051633c617c9160e11b81526001600160a01b038681166004830152909116906378c2f92290602401602060405180830381865afa158015612c04573d5f803e3d5ffd5b505050506040513d601f19601f82011682018060405250810190612c2891906198b5565b90505b6001600160a01b0387165f908152602d602052604090205460ff1680612c7557506001600160a01b038085165f908152603260209081526040808320938b168352929052205460ff165b15612c935780831115612c8d5760115b915050612d1c565b5f612c85565b5f80612ca3865f805f600161623d565b9193509091505f9050826014811115612cbe57612cbe619842565b14612cdf57816014811115612cd557612cd5619842565b9350505050612d1c565b805f03612ced576003612cd5565b612d07604051806020016040528060055481525084616ad0565b851115612d15576011612cd5565b5f93505050505b95945050505050565b6037546060906001600160601b039081169083161115612d6357604051632db8671b60e11b81526001600160601b038316600482015260240161089d565b6001600160601b038216612d8a57604051630203217b60e61b815260040160405180910390fd5b6001600160601b0382165f9081526036602090815260409182902060010180548351818402810184019094528084529091830182828015612df257602002820191905f5260205f20905b81546001600160a01b03168152600190910190602001808311612dd4575b50505050509050919050565b5f612e3d6040518060400160405280601d81526020017f7365697a6556656e757328616464726573735b5d2c6164647265737329000000815250615665565b604080516020808602828101820190935285825285925f92612ed49290918991869182918501908490808284375f9201919091525050600d805460408051602080840282018101909252828152945091925090830182828015612ec757602002820191905f5260205f20905b81546001600160a01b03168152600190910190602001808311612ea9575b5050505050600180616ae7565b5f5b82811015612f99575f878783818110612ef157612ef161995f565b9050602002016020810190612f069190618aba565b6001600160a01b0381165f908152601460205260409020549091508015612f4c57612f318185619987565b6001600160a01b0383165f9081526014602052604081205593505b816001600160a01b03167fa82ad8dba07d5fde98bd3f0ef9b20c6426de9d477bb7647d46e0c7e50c7dc1b282604051612f8791815260200190565b60405180910390a25050600101612ed6565b508015612d1c57603354612fb7906001600160a01b03168583616c30565b836001600160a01b03167fd7fe674cac9eee3998fe3cbd7a6f93c3bc70509d97ec1550a59364be6438147e82604051612ff291815260200190565b60405180910390a295945050505050565b601a54818082036130265760405162461bcd60e51b815260040161089d906198e6565b61302e615ee1565b601b546001600160a01b031615613047576130476160cb565b601a80549084905560408051828152602081018690527fe81d4ac15e5afa1e708e66664eddc697177423d950d133bda8262d8885e6da3b91015b60405180910390a150505050565b6031546001600160a01b031615611bc5576031546040516367994e8b60e11b81526001600160a01b039091169063cf329d16906130d290869088906004016198cc565b5f604051808303815f87803b1580156130e9575f80fd5b505af11580156130fb573d5f803e3d5ffd5b50506031546040516367994e8b60e11b81526001600160a01b03909116925063cf329d1691506121c290859088906004016198cc565b6031546001600160a01b031615611e2c576031546040516367994e8b60e11b81526001600160a01b039091169063cf329d169061317490859089906004016198cc565b5f604051808303815f87803b15801561318b575f80fd5b505af115801561319d573d5f803e3d5ffd5b50506031546040516367994e8b60e11b81526001600160a01b03909116925063cf329d169150611dfe90869089906004016198cc565b84516131e186868686616ae7565b5f5b818110156129f8575f8782815181106131fe576131fe61995f565b602002602001015190505f613216825f805f8061623d565b6001600160a01b0385165f90815260146020526040812080549082905591945090925090506132478483858a616c93565b9050801561326a576001600160a01b0384165f9081526014602052604090208190555b505050508060010190506131e3565b6040805160018082528183019092525f916020808301908036833701905050905081815f815181106132ad576132ad61995f565b60200260200101906001600160a01b031690816001600160a01b0316815250506128dc81600d80548060200260200160405190810160405280929190818152602001828054801561332557602002820191905f5260205f20905b81546001600160a01b03168152600190910190602001808311613307575b505050505060018060016131d3565b61335560405180606001604052806025815260200161a0ec60259139615665565b6037546001600160601b03908116908316111561339057604051632db8671b60e11b81526001600160601b038316600482015260240161089d565b6001600160601b0382166133b757604051630203217b60e61b815260040160405180910390fd5b6001600160601b0382165f908152603660205260409020600281015482151561010090910460ff161515036133eb57505050565b60028101546040805161010090920460ff161515825283151560208301526001600160601b038516917f9d2a9183b06e3492f91d3d88ae222e700c8873dd0068f9c3fc783eccb96a1ec4910160405180910390a260020180549115156101000261ff001990921691909117905550565b6030546060905f816001600160401b0381111561347a5761347a61905a565b6040519080825280602002602001820160405280156134bf57816020015b604080518082019091525f8152606060208201528152602001906001900390816134985790505b5090505f5b828110156135d7575f603082815481106134e0576134e061995f565b905f5260205f20015f9054906101000a90046001600160a01b03169050808383815181106135105761351061995f565b6020908102919091018101516001600160a01b0392831690529082165f908152602f8252604090819020805482518185028101850190935280835291929091908301828280156135a957602002820191905f5260205f20905f905b82829054906101000a900460e01b6001600160e01b0319168152602001906004019060208260030104928301926001038202915080841161356b5790505b50505050508383815181106135c0576135c061995f565b6020908102919091018101510152506001016134c4565b5092915050565b5f806135ea5f846159f3565b50949350505050565b6040805160018082528183019092525f916020808301908036833701905050905082815f815181106136275761362761995f565b60200260200101906001600160a01b031690816001600160a01b0316815250506129fd8183600180614469565b61367560405180606001604052806022815260200161a11160229139615665565b828015806136835750808214155b156136a15760405163512509d360e11b815260040160405180910390fd5b5f5b818110156122c5576137018686838181106136c0576136c061995f565b90506020020160208101906136d59190618ffa565b8585848181106136e7576136e761995f565b90506020020160208101906136fc9190618aba565b616f3f565b6001016136a3565b5f805f805f805f61371a5f89612079565b959e949d50929b5090995097509550909350915050565b5f61375360405180606001604052806033815260200161a13360339139615665565b612d1c858585856168b4565b613767615ee1565b6137708161607d565b6033546040516001600160a01b038084169216907ffe7fd0d872def0f65050e9f38fc6691d0c192c694a56f09b04bec5fb2ea61f2b905f90a3603380546001600160a01b0319166001600160a01b0392909216919091179055565b5f6137d582615712565b6001600160a01b03939093165f90815260029093016020525050604090205460ff1690565b5f611aa082617122565b60366020525f908152604090208054819061381e9061999a565b80601f016020809104026020016040519081016040528092919081815260200182805461384a9061999a565b80156138955780601f1061386c57610100808354040283529160200191613895565b820191905f5260205f20905b81548152906001019060200180831161387857829003601f168201915b5050506002909301549192505060ff8082169161010090041683565b5f6138d360405180606001604052806028815260200161a16660289139615665565b6115915f8484615f2b565b6026545f906001600160a01b03908116908390811682036139115760405162461bcd60e51b815260040161089d9061991d565b613919615ee1565b6139228461607d565b602680546001600160a01b038681166001600160a01b0319831681179093556040519116917f0f7eb572d1b3053a0a3a33c04151364cf88d163182a5e4e1088cb8e52321e08a916120659184916198cc565b6015545f906001600160a01b03908116908390811682036139a75760405162461bcd60e51b815260040161089d9061991d565b6139af615ee1565b6139b88461607d565b601580546001600160a01b038681166001600160a01b03198316179092556040519116907fe1ddcb2dab8e5b03cfc8c67a0d5861d91d16f7bd2612fd381faf4541d212c9b29061206590839088906198cc565b613a13615ee1565b5f613a2083835f80616c93565b90508015613a595760405162461bcd60e51b81526020600482015260066024820152656e6f2078767360d01b604482015260640161089d565b826001600160a01b03167fd7fe674cac9eee3998fe3cbd7a6f93c3bc70509d97ec1550a59364be6438147e83604051613a9491815260200190565b60405180910390a2505050565b5f611aa082617195565b6026546040516304f65f8b60e21b81523060048201526001600160a01b038481166024830152604482018490525f9283928392839216906313d97e2c906064016040805180830381865afa158015613b05573d5f803e3d5ffd5b505050506040513d601f19601f82011682018060405250810190613b299190619856565b909450925050505b9250929050565b613b5960405180606001604052806027815260200161a18e60279139615665565b6037546001600160601b039081169084161115613b9457604051632db8671b60e11b81526001600160601b038416600482015260240161089d565b5f613b9f8484612402565b5f81815260096020526040902080549192509060ff16613bd257604051630665210960e21b815260040160405180910390fd5b82151581600601600c9054906101000a900460ff16151503613bf5575050505050565b600681015460408051600160601b90920460ff161515825284151560208301526001600160a01b038616916001600160601b038816917fe40f9c4af130bdb5bd1650ab4bc918dba9d900fa94685f0113e72a6cfe6c5fcc910160405180910390a36006018054921515600160601b0260ff60601b1990931692909217909155505050565b6001600160a01b0381165f9081526008602090815260408083208054825181850281018501909352808352606094938493929190830182828015613ce457602002820191905f5260205f20905b81546001600160a01b03168152600190910190602001808311613cc6575b505050505090505f815190505f816001600160401b03811115613d0957613d0961905a565b604051908082528060200260200182016040528015613d32578160200160208202803683370190505b5090505f5b82811015613dc8575f613d62858381518110613d5557613d5561995f565b6020026020010151615712565b805490915060ff1615613dbf57848281518110613d8157613d8161995f565b6020026020010151838781518110613d9b57613d9b61995f565b6001600160a01b0390921660209283029190910190910152613dbc866199d2565b95505b50600101613d37565b5092835250909392505050565b611db881600d805480602002602001604051908101604052809291908181526020018280548015613e2d57602002820191905f5260205f20905b81546001600160a01b03168152600190910190602001808311613e0f575b50505050506135f3565b6001600160a01b0381165f908152602f6020908152604091829020805483518184028101840190945280845260609392830182828015612df257602002820191905f5260205f20905f905b82829054906101000a900460e01b6001600160e01b03191681526020019060040190602082600301049283019260010382029150808411613e82575094979650505050505050565b6001600160a01b0382165f908152603560205260408120548190613ef7906001600160601b0316846159f3565b9695505050505050565b6060600d80548060200260200160405190810160405280929190818152602001828054801561297857602002820191905f5260205f209081546001600160a01b0316815260019091019060200180831161295a575050505050905090565b613f9d6040518060400160405280601b81526020017f736574506f6f6c4c6162656c2875696e7439362c737472696e67290000000000815250615665565b6037546001600160601b039081169084161115613fd857604051632db8671b60e11b81526001600160601b038416600482015260240161089d565b6001600160601b038316613fff57604051630203217b60e61b815260040160405180910390fd5b5f8190036140205760405163522e397360e11b815260040160405180910390fd5b6001600160601b0383165f9081526036602052604090819020905161404890849084906199ea565b6040519081900381209061405d9083906199f9565b6040518091039020036140705750505050565b836001600160601b03167f1ebc260ee8077871ff0b70b184ff9dac4ecee8b0f7dcc4f3a3f5068549f5078e825f0185856040516140af93929190619a93565b60405180910390a280611e2c838583619b6c565b6025546001600160a01b03908116908290811682036140f45760405162461bcd60e51b815260040161089d9061991d565b6140fc615ee1565b6141058361607d565b602580546001600160a01b038581166001600160a01b03198316179092556040519116907fa5ea5616d5f6dbbaa62fdfcf3856723216eed485c394d9e51ec8e6d40e1d1ac19061308190839087906198cc565b5f614161615aa5565b61416c856006615af5565b5f6141788686856172c9565b90508015614187579050611ef4565b6141908661630a565b61419a8686616477565b611eee8685616477565b6060815f816001600160401b038111156141c0576141c061905a565b6040519080825280602002602001820160405280156141e9578160200160208202803683370190505b5090505f5b828110156135ea5761422686868381811061420b5761420b61995f565b90506020020160208101906142209190618aba565b33617362565b601481111561423757614237619842565b8282815181106142495761424961995f565b60209081029190910101526001016141ee565b602654604051630779996560e11b81523060048201526001600160a01b0385811660248301528481166044830152606482018490525f928392839283921690630ef332ca906084016040805180830381865afa1580156142be573d5f803e3d5ffd5b505050506040513d601f19601f820116820180604052508101906142e29190619856565b909890975095505050505050565b5f6142f9615aa5565b614304866004615af5565b5f61430e87615712565b90506143198161587e565b6001600160a01b0384165f90815260028201602052604090205460ff16614341576013612c85565b6015546001600160a01b0387811691161461436257614362611ae887615712565b856001600160a01b0316635fe3b5676040518163ffffffff1660e01b8152600401602060405180830381865afa15801561439e573d5f803e3d5ffd5b505050506040513d601f19601f820116820180604052508101906143c2919061989a565b6001600160a01b0316876001600160a01b0316635fe3b5676040518163ffffffff1660e01b8152600401602060405180830381865afa158015614407573d5f803e3d5ffd5b505050506040513d601f19601f8201168201806040525081019061442b919061989a565b6001600160a01b031614614440576002612c85565b6144498761630a565b6144538785616477565b61445d8786616477565b5f979650505050505050565b611bc5848484845f6131d3565b5f6144aa60405180604001604052806012815260200171637265617465506f6f6c28737472696e672960701b815250615665565b81515f036144cb5760405163522e397360e11b815260040160405180910390fd5b603780545f919082906144e6906001600160601b0316619c25565b82546001600160601b038083166101009490940a848102910219909116179092555f908152603660205260409020909150806145228582619c4a565b5060028101805460ff191660011790556040516001600160601b038316907fc419386a8582a5374f4db03fdbb9fd99c73ef32d6ce9fc3a8c249e97bf31f9af9061456d908790619d05565b60405180910390a25092915050565b6145ba6040518060400160405280602081526020017f72656d6f7665506f6f6c4d61726b65742875696e7439362c6164647265737329815250615665565b6001600160601b0382166145e157604051630203217b60e61b815260040160405180910390fd5b5f6145ec8383612402565b5f8181526009602052604090205490915060ff16614637576040516338ddb96b60e11b81526001600160601b03841660048201526001600160a01b038316602482015260440161089d565b6001600160601b0383165f908152603660205260408120600101805490915b8181101561474457846001600160a01b031683828154811061467a5761467a61995f565b5f918252602090912001546001600160a01b03160361473c578261469f600184619d17565b815481106146af576146af61995f565b905f5260205f20015f9054906101000a90046001600160a01b03168382815481106146dc576146dc61995f565b905f5260205f20015f6101000a8154816001600160a01b0302191690836001600160a01b031602179055508280548061471757614717619d2a565b5f8281526020902081015f1990810180546001600160a01b0319169055019055614744565b600101614656565b505f83815260096020526040808220805460ff199081168255600182018490556003820180549091169055600481018390556005810183905560060180546cffffffffffffffffffffffffff19169055516001600160a01b038616916001600160601b038816917fc8bef274db6d8c804aba68a69e64268bcfe7dd0aead2efcec0cac73a2df56e129190a35050505050565b6020545f906147ed906001600160a01b0316617435565b670de0b6b3a764000082106148365760405162461bcd60e51b815260206004820152600f60248201526e70657263656e74203e3d203130302560881b604482015260640161089d565b61483f8461607d565b6148488361607d565b6020805460218054602280546001600160a01b03198086166001600160a01b038c8116919091179097558316898716179093558690556040519284169316917f29f06ea15931797ebaed313d81d100963dc22cb213cb4ce2737b5a62b1a8b1e8906148b69085908a906198cc565b60405180910390a17f8de763046d7b8f08b6c3d03543de1d615309417842bb5d2d62f110f65809ddac82876040516148ef9291906198cc565b60405180910390a160408051828152602081018790527f0893f8f4101baaabbeb513f96761e7a36eb837403c82cc651c292a4abdc94ed7910160405180910390a15f5b979650505050505050565b5f80612d1c5f846159f3565b5f614952615aa5565b61495d846002615af5565b614969611ae885615712565b6149738385617490565b6001600160a01b0384165f908152601f6020526040812054908190036149d45760405162461bcd60e51b815260206004820152601660248201527506d61726b657420626f72726f772063617020697320360541b604482015260640161089d565b6149dd85615712565b6001600160a01b0385165f908152600291909101602052604090205460ff16614a9257336001600160a01b03861614614a505760405162461bcd60e51b815260206004820152601560248201527439b2b73232b91036bab9ba103132903b2a37b5b2b760591b604482015260640161089d565b5f614a5b8686617362565b90505f816014811115614a7057614a70619842565b14614a9057806014811115614a8757614a87619842565b92505050611591565b505b6004805460405163fc57d4df60e01b81526001600160a01b038881169382019390935291169063fc57d4df90602401602060405180830381865afa158015614adc573d5f803e3d5ffd5b505050506040513d601f19601f82011682018060405250810190614b0091906198b5565b5f03614b1057600d915050611591565b5f614b7a866001600160a01b03166347bd37186040518163ffffffff1660e01b8152600401602060405180830381865afa158015614b50573d5f803e3d5ffd5b505050506040513d601f19601f82011682018060405250810190614b7491906198b5565b856174f6565b905081811115614bcc5760405162461bcd60e51b815260206004820152601960248201527f6d61726b657420626f72726f7720636170207265616368656400000000000000604482015260640161089d565b5f80614bdb87895f895f61623d565b9193509091505f9050826014811115614bf657614bf6619842565b14614c1857816014811115614c0d57614c0d619842565b945050505050611591565b8015614c25576004614c0d565b5f60405180602001604052808a6001600160a01b031663aa5af0fd6040518163ffffffff1660e01b8152600401602060405180830381865afa158015614c6d573d5f803e3d5ffd5b505050506040513d601f19601f82011682018060405250810190614c9191906198b5565b90529050614c9f8982615b3f565b614caa898983615cd6565b5f9998505050505050505050565b6008602052815f5260405f208181548110614cd1575f80fd5b5f918252602090912001546001600160a01b03169150829050565b614cf58261607d565b335f908152602c602090815260408083206001600160a01b038616845290915290205481151560ff909116151503614d6f5760405162461bcd60e51b815260206004820152601b60248201527f44656c65676174696f6e2073746174757320756e6368616e6765640000000000604482015260640161089d565b6128dc33838361752b565b5f546001600160a01b03163314614dcf5760405162461bcd60e51b815260206004820152601960248201527837b7363c903ab734ba3937b63632b91030b236b4b71031b0b760391b604482015260640161089d565b611db88161758f565b6001600160a01b0382165f90815260296020526040812081836008811115614e0257614e02619842565b815260208101919091526040015f205460ff169392505050565b5f614e25615aa5565b614e30846001615af5565b5f614e3c8585856172c9565b90508015614e4b579050611591565b614e548561630a565b614e5e8585616477565b5f95945050505050565b614e70615ee1565b848381148015614e7f57508082145b614e9b5760405162461bcd60e51b815260040161089d90619d3e565b5f5b818110156121eb57614ed4888883818110614eba57614eba61995f565b9050602002016020810190614ecf9190618aba565b61607d565b614f35888883818110614ee957614ee961995f565b9050602002016020810190614efe9190618aba565b878784818110614f1057614f1061995f565b90506020020135868685818110614f2957614f2961995f565b90506020020135617782565b600101614e9d565b5f614f49826008615af5565b6040516361bfb47160e11b815233600482015282905f90819081906001600160a01b0385169063c37f68e290602401608060405180830381865afa158015614f93573d5f803e3d5ffd5b505050506040513d601f19601f82011682018060405250810190614fb79190619d65565b50925092509250825f1461500d5760405162461bcd60e51b815260206004820152601960248201527f6765744163636f756e74536e617073686f74206661696c656400000000000000604482015260640161089d565b801561501f57613ef7600c6002615734565b5f61502b8733856172c9565b9050801561504057614932600e6003836178fc565b5f61504a86615712565b335f90815260028201602052604090205490915060ff16615073575f5b98975050505050505050565b335f9081526002820160209081526040808320805460ff1916905560089091528120805490915b8181101561518857886001600160a01b03168382815481106150be576150be61995f565b5f918252602090912001546001600160a01b03160361518057826150e3600184619d17565b815481106150f3576150f361995f565b905f5260205f20015f9054906101000a90046001600160a01b03168382815481106151205761512061995f565b905f5260205f20015f6101000a8154816001600160a01b0302191690836001600160a01b031602179055508280548061515b5761515b619d2a565b5f8281526020902081015f1990810180546001600160a01b0319169055019055615188565b60010161509a565b81811061519757615197619d98565b60405133906001600160a01b038b16907fe699a64c18b07ac5b7301aa273f36a2287239eb9501d81950672794afba29a0d905f90a35f9b9a5050505050505050505050565b6001600160a01b0382165f9081526008602090815260408083208054825181850281018501909352808352849383018282801561524057602002820191905f5260205f20905b81546001600160a01b03168152600190910190602001808311615222575b50939450505050506001600160601b0383161580159061527657506001600160a01b0384165f9081526016602052604090205415155b15615284575f915050611aa0565b5f5b8151811015615360575f8282815181106152a2576152a261995f565b602002602001015190505f6152b78683612402565b5f81815260096020526040902060060154909150600160601b900460ff16615356576040516395dd919360e01b81526001600160a01b0388811660048301525f91908416906395dd919390602401602060405180830381865afa158015615320573d5f803e3d5ffd5b505050506040513d601f19601f8201168201806040525081019061534491906198b5565b1115615356575f945050505050611aa0565b5050600101615286565b506001949350505050565b6028545f906001600160a01b039081169083908116820361539e5760405162461bcd60e51b815260040161089d9061991d565b6153a6615ee1565b6153af8461607d565b602880546001600160a01b038681166001600160a01b03198316179092556040519116907f0f1eca7612e020f6e4582bcead0573eba4b5f7b56668754c6aed82ef12057dd49061206590839088906198cc565b6037546001600160601b03908116908216111561543d57604051632db8671b60e11b81526001600160601b038216600482015260240161089d565b335f908152603560205260409020546001600160601b039081169082160361547857604051631c9d4f3960e31b815260040160405180910390fd5b6001600160601b038116158015906154ab57506001600160601b0381165f9081526036602052604090206002015460ff16155b156154d457604051632da4cc0560e01b81526001600160601b038216600482015260240161089d565b6154de33826151dc565b6154fb5760405163592ec11d60e01b815260040160405180910390fd5b335f818152603560209081526040918290205491516001600160601b03928316815291841692917f9181876220501cdac3aa7278fd34e9bd150c30a27b6ed95458fe859761b071f7910160405180910390a3335f81815260356020526040812080546bffffffffffffffffffffffff19166001600160601b03851617905590819061558690826167e5565b9250509150815f14158061559957505f81115b156129fd5760405163c978466160e01b8152600481018390526024810182905260440161089d565b5f6155ca615aa5565b60185460ff161580156155e55750601854610100900460ff16155b6156215760405162461bcd60e51b815260206004820152600d60248201526c159052481a5cc81c185d5cd959609a1b604482015260640161089d565b6015546001600160a01b031633146156465761563f600e6016615734565b9050611aa0565b6001600160a01b0383165f908152601660205260408120839055611591565b6028546040516318c5e8ab60e01b81526001600160a01b03909116906318c5e8ab906156979033908590600401619dac565b602060405180830381865afa1580156156b2573d5f803e3d5ffd5b505050506040513d601f19601f820116820180604052508101906156d69190619dcf565b611db85760405162461bcd60e51b815260206004820152600d60248201526c1858d8d95cdcc819195b9a5959609a1b604482015260640161089d565b5f60095f6157205f85612402565b81526020019081526020015f209050919050565b5f7f45b96fe442630264581b197e84bbada861235052c5a1aadfff9ea4e40a969aa083601481111561576857615768619842565b83601a81111561577a5761577a619842565b6040805192835260208301919091525f9082015260600160405180910390a182601481111561159157611591619842565b5f600554828082036157cf5760405162461bcd60e51b815260040161089d906198e6565b6157d7615ee1565b604080516020808201835286825282518082018452670c7d713b49da00008152835191820190935266b1a2bc2ec50000815281518351929392108061581d575082518151115b156158375761582d600580615734565b9550505050612072565b600580549088905560408051828152602081018a90527f3b9670cf975d26958e754b57098eaa2ac914d8d2a31b83257997b9f346110fd9910160405180910390a15f615067565b805460ff16611db85760405162461bcd60e51b81526020600482015260116024820152701b585c9ad95d081b9bdd081b1a5cdd1959607a1b604482015260640161089d565b6158e460405180606001604052806029815260200161a0c360299139615665565b8151815181158015906158f657508082145b6159125760405162461bcd60e51b815260040161089d90619d3e565b5f5b82811015611e2c5783818151811061592e5761592e61995f565b6020026020010151601f5f87848151811061594b5761594b61995f565b60200260200101516001600160a01b03166001600160a01b031681526020019081526020015f20819055508481815181106159885761598861995f565b60200260200101516001600160a01b03167f6f1951b2aad10f3fc81b86d91105b413a5b3f847a34bbc5ce1904201b14438f68583815181106159cc576159cc61995f565b60200260200101516040516159e391815260200190565b60405180910390a2600101615914565b6001600160601b0382165f81815260366020526040812090918291829182901580615a235750600282015460ff16155b15615a3857615a3186615712565b9050615a87565b5f615a438888612402565b5f81815260096020526040902080549192509060ff16158015615a6f57506002840154610100900460ff165b615a795780615a82565b615a8288615712565b925050505b80600101548160040154826005015494509450945050509250925092565b60185462010000900460ff1615615af35760405162461bcd60e51b81526020600482015260126024820152711c1c9bdd1bd8dbdb081a5cc81c185d5cd95960721b604482015260640161089d565b565b615aff8282614dd8565b156128dc5760405162461bcd60e51b815260206004820152601060248201526f1858dd1a5bdb881a5cc81c185d5cd95960821b604482015260640161089d565b6001600160a01b0382165f908152601160209081526040808320602a9092528220549091615b6b617973565b83549091505f90615b8c9063ffffffff80851691600160e01b9004166179ac565b90508015801590615b9c57508215155b15615cab575f615c0b876001600160a01b03166347bd37186040518163ffffffff1660e01b8152600401602060405180830381865afa158015615be1573d5f803e3d5ffd5b505050506040513d601f19601f82011682018060405250810190615c0591906198b5565b876179e5565b90505f615c188386617a02565b90505f825f03615c365760405180602001604052805f815250615c40565b615c408284617a43565b604080516020810190915288546001600160e01b03168152909150615c8990615c699083617a86565b516040805180820190915260038152620c8c8d60ea1b6020820152617aaf565b6001600160e01b0316600160e01b63ffffffff871602178755506122c5915050565b80156122c557835463ffffffff8316600160e01b026001600160e01b03909116178455505050505050565b601b546001600160a01b031615615cef57615cef6160cb565b6001600160a01b038381165f9081526011602090815260408083205460138352818420948716845293909152902080546001600160e01b03909216908190559080158015615d4b57506a0c097ce7bc90715b34b9f160241b8210155b15615d6157506a0c097ce7bc90715b34b9f160241b5b5f6040518060200160405280615d7785856179ac565b90526040516395dd919360e01b81526001600160a01b0387811660048301529192505f91615dd091615dca918a16906395dd919390602401602060405180830381865afa158015615be1573d5f803e3d5ffd5b83617add565b6001600160a01b0387165f90815260146020526040902054909150615df590826174f6565b6001600160a01b038781165f818152601460209081526040918290209490945580518581529384018890529092918a16917f837bdc11fca9f17ce44167944475225a205279b17e88c791c3b1f66f354668fb910160405180910390a350505050505050565b615e7b604051806060016040528060298152602001619ff360299139615665565b825182515f5b828110156122c5575f5b82811015615ed857615ed0878381518110615ea857615ea861995f565b6020026020010151878381518110615ec257615ec261995f565b602002602001015187617b04565b600101615e8b565b50600101615e81565b5f546001600160a01b03163314615af35760405162461bcd60e51b815260206004820152600e60248201526d37b7363c9030b236b4b71031b0b760911b604482015260640161089d565b5f60095f615f398686612402565b81526020019081526020015f206005015482808203615f6a5760405162461bcd60e51b815260040161089d906198e6565b6037546001600160601b039081169087161115615fa557604051632db8671b60e11b81526001600160601b038716600482015260240161089d565b5f60095f615fb38989612402565b81526020019081526020015f209050615fcb8161587e565b670de0b6b3a76400008510156160165760405162461bcd60e51b815260206004820152601060248201526f0d2dcc6cadce8d2ecca40784062ca62760831b604482015260640161089d565b856001600160a01b0316876001600160601b03167fc1d7bc090f3a87255c2f4e56f66d1b7a49683d279f77921b1701aa5d733ef745836005015488604051616068929190918252602082015260400190565b60405180910390a3600581018590555f614932565b6001600160a01b038116611db85760405162461bcd60e51b815260206004820152601560248201527463616e2774206265207a65726f206164647265737360581b604482015260640161089d565b601c5415806160db5750601c5443105b156160e257565b6033546040516370a0823160e01b81523060048201526001600160a01b03909116905f9082906370a0823190602401602060405180830381865afa15801561612c573d5f803e3d5ffd5b505050506040513d601f19601f8201168201806040525081019061615091906198b5565b9050805f0361615d575050565b5f8061616b43601c546179ac565b90505f61617a601a5483617a02565b905080841061618b5780925061618f565b8392505b601d548310156161a0575050505050565b43601c55601b546161be906001600160a01b03878116911685616c30565b6040518381527ff6d4b8f74d85a6e2d7a50225957b8a6cfec69ad92f5905627260541aa0a5565d9060200160405180910390a1601b5f9054906101000a90046001600160a01b03166001600160a01b031663faa1809e6040518163ffffffff1660e01b81526004015f604051808303815f87803b158015611e15575f80fd5b602654604051637bd48c1f60e11b81525f91829182918291829182916001600160a01b039091169063f7a9183e906162839030908f908f908f908f908f90600401619dea565b606060405180830381865afa15801561629e573d5f803e3d5ffd5b505050506040513d601f19601f820116820180604052508101906162c29190619e25565b9250925092508260148111156162da576162da619842565b9b919a5098509650505050505050565b5f806162f68585617ba8565b9050612d1c61630482617bce565b846174f6565b6001600160a01b0381165f908152601060209081526040808320602b9092528220549091616336617973565b83549091505f906163579063ffffffff80851691600160e01b9004166179ac565b9050801580159061636757508215155b1561644d575f856001600160a01b03166318160ddd6040518163ffffffff1660e01b8152600401602060405180830381865afa1580156163a9573d5f803e3d5ffd5b505050506040513d601f19601f820116820180604052508101906163cd91906198b5565b90505f6163da8386617a02565b90505f825f036163f85760405180602001604052805f815250616402565b6164028284617a43565b604080516020810190915288546001600160e01b0316815290915061642b90615c699083617a86565b6001600160e01b0316600160e01b63ffffffff87160217875550611e2c915050565b8015611e2c57835463ffffffff8316600160e01b026001600160e01b039091161784555050505050565b601b546001600160a01b031615616490576164906160cb565b6001600160a01b038281165f9081526010602090815260408083205460128352818420948616845293909152902080546001600160e01b039092169081905590801580156164ec57506a0c097ce7bc90715b34b9f160241b8210155b1561650257506a0c097ce7bc90715b34b9f160241b5b5f604051806020016040528061651885856179ac565b90526040516370a0823160e01b81526001600160a01b0386811660048301529192505f9161658c91908816906370a0823190602401602060405180830381865afa158015616568573d5f803e3d5ffd5b505050506040513d601f19601f82011682018060405250810190615dca91906198b5565b6001600160a01b0386165f908152601460205260409020549091506165b190826174f6565b6001600160a01b038681165f818152601460209081526040918290209490945580518581529384018890529092918916917ffa9d964d891991c113b49e3db1932abd6c67263d387119707aafdd6c4010a3a9910160405180910390a3505050505050565b61663660405180606001604052806029815260200161a04b60299139615665565b81518151811580159061664857508082145b6166645760405162461bcd60e51b815260040161089d90619d3e565b5f5b82811015611e2c578381815181106166805761668061995f565b602002602001015160275f87848151811061669d5761669d61995f565b60200260200101516001600160a01b03166001600160a01b031681526020019081526020015f20819055508481815181106166da576166da61995f565b60200260200101516001600160a01b03167f9e0ad9cee10bdf36b7fbd38910c0bdff0f275ace679b45b922381c2723d676f885838151811061671e5761671e61995f565b602002602001015160405161673591815260200190565b60405180910390a2600101616666565b61676660405180606001604052806023815260200161a07460239139615665565b6015546001600160a01b0383811691161461678757616787611ae883615712565b6001600160a01b0382165f818152602d6020908152604091829020805460ff191685151590811790915591519182527f03561d5280ebb02280893b1d60978e4a27e7654a149c5d0e7c2cf65389ce1694910160405180910390a25050565b5f805f805f806167f8885f805f8b61623d565b92509250925082601481111561681057616810619842565b9891975095509350505050565b6004545f906001600160a01b03908116908390811682036168505760405162461bcd60e51b815260040161089d9061991d565b616858615ee1565b6168618461607d565b600480546001600160a01b038681166001600160a01b03198316179092556040519116907fd52b2b9b7e9ee655fcb95d2e5b9e0c9f69e7ef2b8e9d2d0ea78402d576d22e229061206590839088906198cc565b5f6168be8461607d565b6037546001600160601b0390811690861611156168f957604051632db8671b60e11b81526001600160601b038616600482015260240161089d565b5f60095f6169078888612402565b81526020019081526020015f20905061691f8161587e565b670de0b6b3a76400008411156169435761693b60066008615734565b915050611ef4565b83158015906169bd57506004805460405163fc57d4df60e01b81526001600160a01b038881169382019390935291169063fc57d4df90602401602060405180830381865afa158015616997573d5f803e3d5ffd5b505050506040513d601f19601f820116820180604052508101906169bb91906198b5565b155b156169ce5761693b600d6009615734565b670de0b6b3a76400008311156169ea5761693b60146019615734565b838310156169fe5761693b6014601a615734565b6001810154848114616a61576001820185905560408051828152602081018790526001600160a01b038816916001600160601b038a16917f0d1a615379dc62cec7bc63b7e313a07ed659918f4ad3720b3af8041b305146f2910160405180910390a35b600482015484811461280e576004830185905560408051828152602081018790526001600160a01b038916916001600160601b038b16917fc90f7b48c299a8d58b0b9e2756e27773c6fb1daab159af052d6c5b791bc7eef7910160405180910390a35f98975050505050505050565b5f80616adc8484617ba8565b9050611ef481617bce565b835183515f9190825b818110156121eb575f878281518110616b0b57616b0b61995f565b60200260200101519050616b21611ae882615712565b8615616bde575f6040518060200160405280836001600160a01b031663aa5af0fd6040518163ffffffff1660e01b8152600401602060405180830381865afa158015616b6f573d5f803e3d5ffd5b505050506040513d601f19601f82011682018060405250810190616b9391906198b5565b90529050616ba18282615b3f565b5f95505b84861015616bdc57616bd1828b8881518110616bc357616bc361995f565b602002602001015183615cd6565b856001019550616ba5565b505b8515616c2757616bed8161630a565b5f94505b83851015616c2757616c1c818a8781518110616c0f57616c0f61995f565b6020026020010151616477565b846001019450616bf1565b50600101616af0565b6040516001600160a01b0383166024820152604481018290526129fd90849063a9059cbb60e01b906064015b60408051601f198184030181529190526020810180516001600160e01b03166001600160e01b031990931692909217909152617be5565b5f73ef044206db68e40520bfa82d45419d498b4bc7bf6001600160a01b03861614801590616cde5750737589dd3355dae848fdbf75044a3495351655cb1a6001600160a01b03861614155b8015616d0757507333df7a7f6d44307e1e5f3b15975b47515e5524c06001600160a01b03861614155b8015616d3057507324e77e5b74b30b026e9996e4bc3329c881e249686001600160a01b03861614155b616d6a5760405162461bcd60e51b815260206004820152600b60248201526a109b1858dadb1a5cdd195960aa1b604482015260640161089d565b6033546001600160a01b0316841580616de757506040516370a0823160e01b81523060048201526001600160a01b038216906370a0823190602401602060405180830381865afa158015616dc0573d5f803e3d5ffd5b505050506040513d601f19601f82011682018060405250810190616de491906198b5565b85115b15616df55784915050611ef4565b835f03616e1957616e106001600160a01b0382168787616c30565b5f915050611ef4565b82616e515760405162461bcd60e51b815260206004820152600860248201526718985b9adc9d5c1d60c21b604482015260640161089d565b6034546001600160a01b0390811690616e6d908316825f617cb8565b616e816001600160a01b0383168288617cb8565b5f6040516323323e0360e01b81526001600160a01b038981166004830152602482018990528316906323323e03906044016020604051808303815f875af1158015616ece573d5f803e3d5ffd5b505050506040513d601f19601f82011682018060405250810190616ef291906198b5565b14616f335760405162461bcd60e51b815260206004820152601160248201527036b4b73a103132b430b6331032b93937b960791b604482015260640161089d565b505f9695505050505050565b6001600160601b038216616f6657604051630203217b60e61b815260040160405180910390fd5b6037546001600160601b039081169083161115616fa157604051632db8671b60e11b81526001600160601b038316600482015260240161089d565b6001600160601b0382165f9081526036602052604090206002015460ff16616fe757604051632da4cc0560e01b81526001600160601b038316600482015260240161089d565b5f616ff25f83612402565b5f8181526009602052604090205490915060ff16617023576040516386dccab760e01b815260040160405180910390fd5b61702d8383612402565b5f8181526009602052604090205490915060ff16156170795760405163d9d72f2b60e01b81526001600160601b03841660048201526001600160a01b038316602482015260440161089d565b5f8181526009602090815260408083206006810180546bffffffffffffffffffffffff19166001600160601b038916908117909155815460ff19166001908117835581865260368552838620810180549182018155865293852090930180546001600160a01b0319166001600160a01b038816908117909155915190939192917f2159e9508e372ac69e1047a124c5478445206066e5d7df7e4214a1986cd78c8091a350505050565b5f61712b615ee1565b6171348261607d565b603180546001600160a01b038481166001600160a01b03198316179092556040519116907fcb20dab7409e4fb972d9adccb39530520b226ce6940d85c9523a499b950b6ea39061718790839086906198cc565b60405180910390a15f611591565b5f6171d46040518060400160405280601781526020017f5f737570706f72744d61726b6574286164647265737329000000000000000000815250615665565b6171dd82615712565b5460ff16156171f257611aa0600a6011615734565b816001600160a01b0316633d9ea3a16040518163ffffffff1660e01b8152600401602060405180830381865afa15801561722e573d5f803e3d5ffd5b505050506040513d601f19601f820116820180604052508101906172529190619dcf565b505f61725d83615712565b8054600160ff19918216811783556003830180549092169091555f90820155905061728783617dca565b61729083617ea0565b6040516001600160a01b038416907fcf583bb0c569eb967f806b11601c4cb93c10310485c67add5f8362c2f212321f905f90a25f611591565b5f6172d6611ae885615712565b6172df84615712565b6001600160a01b0384165f908152600291909101602052604090205460ff1661730957505f611591565b5f806173188587865f8061623d565b9193509091505f905082601481111561733357617333619842565b1461734a57816014811115614a8757614a87619842565b8015617357576004614a87565b5f9695505050505050565b5f61736e836007615af5565b5f61737884615712565b90506173838161587e565b6001600160a01b0383165f90815260028201602052604090205460ff16156173ae575f915050611aa0565b6001600160a01b038084165f8181526002840160209081526040808320805460ff191660019081179091556008835281842080549182018155845291832090910180549489166001600160a01b031990951685179055519192917f3ab23ab0d51cccc0c3085aec51f99228625aa1a922b3a8ca89a26b0f2027a1a59190a3505f9392505050565b5f546001600160a01b03163314806156d65750336001600160a01b03821614611db85760405162461bcd60e51b815260206004820152600d60248201526c1858d8d95cdcc819195b9a5959609a1b604482015260640161089d565b6001600160a01b0382165f908152603560205260408120546174bb906001600160601b031683612402565b5f81815260096020526040902060060154909150600160601b900460ff166129fd576040516305b80c7960e41b815260040160405180910390fd5b5f6115918383604051806040016040528060118152602001706164646974696f6e206f766572666c6f7760781b815250617f60565b6001600160a01b038381165f818152602c6020908152604080832094871680845294825291829020805460ff191686151590811790915591519182527fcb325b7784f78486e42849c7a50b8c5ee008d00cd90e108a58912c0fcb6288b49101611b4d565b80515f5b81811015617746575f8382815181106175ae576175ae61995f565b60200260200101516020015190505f60028111156175ce576175ce619842565b8160028111156175e0576175e0619842565b0361762d576176288483815181106175fa576175fa61995f565b60200260200101515f01518584815181106176175761761761995f565b602002602001015160400151617f90565b61773d565b600181600281111561764157617641619842565b036176895761762884838151811061765b5761765b61995f565b60200260200101515f01518584815181106176785761767861995f565b6020026020010151604001516180e8565b600281600281111561769d5761769d619842565b036176e5576176288483815181106176b7576176b761995f565b60200260200101515f01518584815181106176d4576176d461995f565b602002602001015160400151618257565b60405162461bcd60e51b815260206004820152602760248201527f4c69624469616d6f6e644375743a20496e636f727265637420466163657443756044820152663a20b1ba34b7b760c91b606482015260840161089d565b50600101617593565b507f2e97860c6f47eab0292d51fa3ceec7e373c62af1e7eb2a28ae82998b80de6cfd826040516177769190619e50565b60405180910390a15050565b61778e611ae884615712565b6001600160a01b0383165f908152602b6020526040902054821461780a576177b58361630a565b6001600160a01b0383165f818152602b602052604090819020849055517fa9ff26899e4982e7634afa9f70115dcfb61a17d6e8cdd91aa837671d0ff40ba6906178019085815260200190565b60405180910390a25b6001600160a01b0383165f908152602a602052604090205481146129fd575f6040518060200160405280856001600160a01b031663aa5af0fd6040518163ffffffff1660e01b8152600401602060405180830381865afa158015617870573d5f803e3d5ffd5b505050506040513d601f19601f8201168201806040525081019061789491906198b5565b905290506178a28482615b3f565b6001600160a01b0384165f818152602a602052604090819020849055517f0c62c1bc89ec4c40dccb4d21543e782c5ba43897c0075d108d8964181ea3c51b906178ee9085815260200190565b60405180910390a250505050565b5f7f45b96fe442630264581b197e84bbada861235052c5a1aadfff9ea4e40a969aa084601481111561793057617930619842565b84601a81111561794257617942619842565b604080519283526020830191909152810184905260600160405180910390a1836014811115611ef457611ef4619842565b5f6179a74360405180604001604052806011815260200170626c6f636b2023203e203332206269747360781b815250618352565b905090565b5f6115918383604051806040016040528060158152602001747375627472616374696f6e20756e646572666c6f7760581b815250618379565b5f6115916179fb84670de0b6b3a7640000617a02565b83516183a7565b5f61159183836040518060400160405280601781526020017f6d756c7469706c69636174696f6e206f766572666c6f770000000000000000008152506183d9565b60408051602081019091525f81526040518060200160405280617a7d617a77866a0c097ce7bc90715b34b9f160241b617a02565b856183a7565b90529392505050565b60408051602081019091525f81526040518060200160405280617a7d855f0151855f01516174f6565b5f81600160e01b8410617ad55760405162461bcd60e51b815260040161089d9190619d05565b509192915050565b5f6a0c097ce7bc90715b34b9f160241b617afa84845f0151617a02565b6115919190619edd565b617b10611ae884615712565b6001600160a01b0383165f9081526029602052604081208291846008811115617b3b57617b3b619842565b815260208101919091526040015f20805460ff1916911515919091179055816008811115617b6b57617b6b619842565b836001600160a01b03167f35007a986bcd36d2f73fc7f1b73762e12eadb4406dd163194950fd3b5a6a827d83604051611b4d911515815260200190565b60408051602081019091525f81526040518060200160405280617a7d855f015185617a02565b80515f90611aa090670de0b6b3a764000090619edd565b5f617c39826040518060400160405280602081526020017f5361666545524332303a206c6f772d6c6576656c2063616c6c206661696c6564815250856001600160a01b03166184299092919063ffffffff16565b905080515f1480617c59575080806020019051810190617c599190619dcf565b6129fd5760405162461bcd60e51b815260206004820152602a60248201527f5361666545524332303a204552433230206f7065726174696f6e20646964206e6044820152691bdd081cdd58d8d9595960b21b606482015260840161089d565b801580617d2f5750604051636eb1769f60e11b81526001600160a01b0384169063dd62ed3e90617cee90309086906004016198cc565b602060405180830381865afa158015617d09573d5f803e3d5ffd5b505050506040513d601f19601f82011682018060405250810190617d2d91906198b5565b155b617d9a5760405162461bcd60e51b815260206004820152603660248201527f5361666545524332303a20617070726f76652066726f6d206e6f6e2d7a65726f60448201527520746f206e6f6e2d7a65726f20616c6c6f77616e636560501b606482015260840161089d565b6040516001600160a01b0383166024820152604481018290526129fd90849063095ea7b360e01b90606401616c5c565b600d545f5b81811015617e4d57826001600160a01b0316600d8281548110617df457617df461995f565b5f918252602090912001546001600160a01b031603617e455760405162461bcd60e51b815260206004820152600d60248201526c185b1c9958591e481859191959609a1b604482015260640161089d565b600101617dcf565b5050600d80546001810182555f919091527fd7b6990105719101dabeb77144f2a3385c8033acd3af97e9423a695e81ad1eb50180546001600160a01b0319166001600160a01b0392909216919091179055565b5f617ea9617973565b6001600160a01b0383165f908152601060209081526040808320601190925282208154939450909290916001600160e01b039091169003617f035781546001600160e01b0319166a0c097ce7bc90715b34b9f160241b1782555b80546001600160e01b03165f03617f335780546001600160e01b0319166a0c097ce7bc90715b34b9f160241b1781555b805463ffffffff909316600160e01b026001600160e01b0393841681179091558154909216909117905550565b5f80617f6c8486619987565b905082858210156135ea5760405162461bcd60e51b815260040161089d9190619d05565b80515f03617fb05760405162461bcd60e51b815260040161089d90619efc565b6001600160a01b038216617fd65760405162461bcd60e51b815260040161089d90619f47565b6001600160a01b0382165f908152602f6020526040812054906001600160601b03821690036180085761800883618437565b81515f5b81811015611e2c575f8482815181106180275761802761995f565b6020908102919091018101516001600160e01b031981165f908152602e9092526040909120549091506001600160a01b031680156180c55760405162461bcd60e51b815260206004820152603560248201527f4c69624469616d6f6e644375743a2043616e2774206164642066756e6374696f6044820152746e207468617420616c72656164792065786973747360581b606482015260840161089d565b6180d08286896184d9565b6180d985619c25565b9450505080600101905061800c565b80515f036181085760405162461bcd60e51b815260040161089d90619efc565b6001600160a01b03821661812e5760405162461bcd60e51b815260040161089d90619f47565b6001600160a01b0382165f908152602f6020526040812054906001600160601b03821690036181605761816083618437565b81515f5b81811015611e2c575f84828151811061817f5761817f61995f565b6020908102919091018101516001600160e01b031981165f908152602e9092526040909120549091506001600160a01b03908116908716810361822a5760405162461bcd60e51b815260206004820152603860248201527f4c69624469616d6f6e644375743a2043616e2774207265706c6163652066756e60448201527f6374696f6e20776974682073616d652066756e6374696f6e0000000000000000606482015260840161089d565b6182348183618577565b61823f8286896184d9565b61824885619c25565b94505050806001019050618164565b80515f8190036182795760405162461bcd60e51b815260040161089d90619efc565b6001600160a01b038316156182ef5760405162461bcd60e51b815260206004820152603660248201527f4c69624469616d6f6e644375743a2052656d6f76652066616365742061646472604482015275657373206d757374206265206164647265737328302960501b606482015260840161089d565b5f5b81811015611bc5575f83828151811061830c5761830c61995f565b6020908102919091018101516001600160e01b031981165f908152602e9092526040909120549091506001600160a01b03166183488183618577565b50506001016182f1565b5f816401000000008410617ad55760405162461bcd60e51b815260040161089d9190619d05565b5f818484111561839c5760405162461bcd60e51b815260040161089d9190619d05565b50611ef48385619d17565b5f61159183836040518060400160405280600e81526020016d646976696465206279207a65726f60901b8152506188bc565b5f8315806183e5575082155b156183f157505f611591565b5f6183fc8486619f93565b9050836184098683619edd565b1483906135ea5760405162461bcd60e51b815260040161089d9190619d05565b6060611ef484845f856188e7565b618476816040518060400160405280601e81526020017f4469616d6f6e643a204e657720666163657420686173206e6f20636f646500008152506189b3565b603080546001600160a01b039092165f818152602f60205260408120600190810185905584018355919091527f6ff97a59c90d62cc7236ba3a37cd85351bf564556780cf8c1157a220f31f0cbb90910180546001600160a01b0319169091179055565b6001600160e01b031983165f818152602e6020818152604080842080546001600160601b03909816600160a01b026001600160a01b0398891617815595909616808452602f825295832080546001810182559084528184206008820401805460e09990991c60046007909316929092026101000a91820263ffffffff909202199098161790965591905290925281546001600160a01b031916179055565b6001600160a01b0382166185f35760405162461bcd60e51b815260206004820152603760248201527f4c69624469616d6f6e644375743a2043616e27742072656d6f76652066756e6360448201527f74696f6e207468617420646f65736e2774206578697374000000000000000000606482015260840161089d565b6001600160e01b031981165f908152602e60209081526040808320546001600160a01b0386168452602f909252822054600160a01b9091046001600160601b0316919061864290600190619d17565b905080821461872e576001600160a01b0384165f908152602f602052604081208054839081106186745761867461995f565b5f91825260208083206008830401546001600160a01b0389168452602f9091526040909220805460079092166004026101000a90920460e01b9250829190859081106186c2576186c261995f565b5f91825260208083206008830401805463ffffffff60079094166004026101000a938402191660e09590951c929092029390931790556001600160e01b0319929092168252602e90526040902080546001600160a01b0316600160a01b6001600160601b038516021790555b6001600160a01b0384165f908152602f6020526040902080548061875457618754619d2a565b5f828152602080822060085f1990940193840401805463ffffffff600460078716026101000a0219169055919092556001600160e01b031985168252602e905260408120819055819003611bc5576030545f906187b390600190619d17565b6001600160a01b0386165f908152602f6020526040902060010154909150808214618857575f603083815481106187ec576187ec61995f565b5f91825260209091200154603080546001600160a01b03909216925082918490811061881a5761881a61995f565b5f91825260208083209190910180546001600160a01b0319166001600160a01b03948516179055929091168152602f909152604090206001018190555b603080548061886857618868619d2a565b5f828152602080822083015f1990810180546001600160a01b03191690559092019092556001600160a01b0388168252602f905260408120906188ab8282618a71565b600182015f90555050505050505050565b5f81836188dc5760405162461bcd60e51b815260040161089d9190619d05565b50611ef48385619edd565b6060824710156189485760405162461bcd60e51b815260206004820152602660248201527f416464726573733a20696e73756666696369656e742062616c616e636520666f6044820152651c8818d85b1b60d21b606482015260840161089d565b5f80866001600160a01b031685876040516189639190619faa565b5f6040518083038185875af1925050503d805f811461899d576040519150601f19603f3d011682016040523d82523d5f602084013e6189a2565b606091505b5091509150614932878383876189d4565b813b8181611bc55760405162461bcd60e51b815260040161089d9190619d05565b60608315618a425782515f03618a3b576001600160a01b0385163b618a3b5760405162461bcd60e51b815260206004820152601d60248201527f416464726573733a2063616c6c20746f206e6f6e2d636f6e7472616374000000604482015260640161089d565b5081611ef4565b611ef48383815115618a575781518083602001fd5b8060405162461bcd60e51b815260040161089d9190619d05565b5080545f825560070160089004905f5260205f2090810190611db891905b80821115618aa2575f8155600101618a8f565b5090565b6001600160a01b0381168114611db8575f80fd5b5f60208284031215618aca575f80fd5b813561159181618aa6565b5f8060408385031215618ae6575f80fd5b8235618af181618aa6565b91506020830135618b0181618aa6565b809150509250929050565b5f805f8060808587031215618b1f575f80fd5b8435618b2a81618aa6565b93506020850135618b3a81618aa6565b92506040850135618b4a81618aa6565b9396929550929360600135925050565b5f60208284031215618b6a575f80fd5b5035919050565b8015158114611db8575f80fd5b5f805f60608486031215618b90575f80fd5b8335618b9b81618aa6565b92506020840135618bab81618aa6565b91506040840135618bbb81618b71565b809150509250925092565b5f8083601f840112618bd6575f80fd5b5081356001600160401b03811115618bec575f80fd5b6020830191508360208260051b8501011115613b31575f80fd5b5f805f8060408587031215618c19575f80fd5b84356001600160401b0380821115618c2f575f80fd5b618c3b88838901618bc6565b90965094506020870135915080821115618c53575f80fd5b50618c6087828801618bc6565b95989497509550505050565b5f805f60608486031215618c7e575f80fd5b8335618c8981618aa6565b92506020840135618c9981618aa6565b9150604084013560028110618bbb575f80fd5b5f805f805f60a08688031215618cc0575f80fd5b8535618ccb81618aa6565b94506020860135618cdb81618aa6565b93506040860135618ceb81618aa6565b94979396509394606081013594506080013592915050565b5f805f805f60608688031215618d17575f80fd5b85356001600160401b0380821115618d2d575f80fd5b618d3989838a01618bc6565b90975095506020880135915080821115618d51575f80fd5b50618d5e88828901618bc6565b9094509250506040860135618d7281618b71565b809150509295509295909350565b5f60208284031215618d90575f80fd5b813561159181618b71565b80356001600160601b0381168114618db1575f80fd5b919050565b5f8060408385031215618dc7575f80fd5b618af183618d9b565b5f805f60608486031215618de2575f80fd5b618deb84618d9b565b92506020840135618dfb81618aa6565b929592945050506040919091013590565b5f805f8060808587031215618e1f575f80fd5b8435618e2a81618aa6565b93506020850135618e3a81618aa6565b93969395505050506040820135916060013590565b5f805f805f8060c08789031215618e64575f80fd5b8635618e6f81618aa6565b95506020870135618e7f81618aa6565b94506040870135618e8f81618aa6565b93506060870135618e9f81618aa6565b9598949750929560808101359460a0909101359350915050565b5f8060408385031215618eca575f80fd5b618ed383618d9b565b91506020830135618b0181618b71565b5f805f60608486031215618ef5575f80fd5b8335618f0081618aa6565b95602085013595506040909401359392505050565b5f805f60608486031215618f27575f80fd5b8335618deb81618aa6565b5f8060408385031215618f43575f80fd5b8235618ed381618aa6565b602080825282518282018190525f9190848201906040850190845b81811015618f8e5783516001600160a01b031683529284019291840191600101618f69565b50909695505050505050565b5f805f805f60a08688031215618fae575f80fd5b8535618fb981618aa6565b94506020860135618fc981618aa6565b93506040860135618fd981618aa6565b92506060860135618fe981618aa6565b949793965091946080013592915050565b5f6020828403121561900a575f80fd5b61159182618d9b565b5f805f60408486031215619025575f80fd5b83356001600160401b0381111561903a575f80fd5b61904686828701618bc6565b9094509250506020840135618bbb81618aa6565b634e487b7160e01b5f52604160045260245ffd5b604051606081016001600160401b03811182821017156190905761909061905a565b60405290565b604051601f8201601f191681016001600160401b03811182821017156190be576190be61905a565b604052919050565b5f6001600160401b038211156190de576190de61905a565b5060051b60200190565b5f82601f8301126190f7575f80fd5b8135602061910c619107836190c6565b619096565b8083825260208201915060208460051b87010193508684111561912d575f80fd5b602086015b8481101561915257803561914581618aa6565b8352918301918301619132565b509695505050505050565b5f805f805f60a08688031215619171575f80fd5b85356001600160401b0380821115619187575f80fd5b61919389838a016190e8565b965060208801359150808211156191a8575f80fd5b506191b5888289016190e8565b94505060408601356191c681618b71565b925060608601356191d681618b71565b91506080860135618d7281618b71565b5f815180845260208085019450602084015f5b8381101561921f5781516001600160e01b031916875295820195908201906001016191f9565b509495945050505050565b5f60208083018184528085518083526040925060408601915060408160051b8701018488015f5b8381101561929957888303603f19018552815180516001600160a01b03168452870151878401879052619286878501826191e6565b9588019593505090860190600101619251565b509098975050505050505050565b5f80604083850312156192b8575f80fd5b82356192c381618aa6565b915060208301356001600160401b038111156192dd575f80fd5b6192e9858286016190e8565b9150509250929050565b5f805f8060808587031215619306575f80fd5b618e2a85618d9b565b5f81518084528060208401602086015e5f602082860101526020601f19601f83011685010191505092915050565b606081525f61934f606083018661930f565b931515602083015250901515604090910152919050565b5f8060408385031215619377575f80fd5b823561938281618aa6565b946020939093013593505050565b5f805f606084860312156193a2575f80fd5b618b9b84618d9b565b602081525f61159160208301846191e6565b5f805f604084860312156193cf575f80fd5b6193d884618d9b565b925060208401356001600160401b03808211156193f3575f80fd5b818601915086601f830112619406575f80fd5b813581811115619414575f80fd5b876020828501011115619425575f80fd5b6020830194508093505050509250925092565b5f8060208385031215619449575f80fd5b82356001600160401b0381111561945e575f80fd5b61946a85828601618bc6565b90969095509350505050565b602080825282518282018190525f9190848201906040850190845b81811015618f8e57835183529284019291840191600101619491565b80356001600160e01b031981168114618db1575f80fd5b5f602082840312156194d4575f80fd5b611591826194ad565b5f805f80608085870312156194f0575f80fd5b84356001600160401b0380821115619506575f80fd5b619512888389016190e8565b95506020870135915080821115619527575f80fd5b50619534878288016190e8565b935050604085013561954581618b71565b9150606085013561955581618b71565b939692955090935050565b5f6020808385031215619571575f80fd5b82356001600160401b0380821115619587575f80fd5b818501915085601f83011261959a575f80fd5b8135818111156195ac576195ac61905a565b6195be601f8201601f19168501619096565b915080825286848285010111156195d3575f80fd5b80848401858401375f90820190930192909252509392505050565b5f60208083850312156195ff575f80fd5b82356001600160401b0380821115619615575f80fd5b818501915085601f830112619628575f80fd5b8135619636619107826190c6565b81815260059190911b83018401908481019088831115619654575f80fd5b8585015b838110156197415780358581111561966e575f80fd5b86016060818c03601f1901811315619684575f80fd5b61968c61906e565b8983013561969981618aa6565b8152604083810135600381106196ad575f80fd5b828c01529183013591888311156196c2575f80fd5b82840193508d603f8501126196d5575f80fd5b8a84013592506196e7619107846190c6565b83815260059390931b84018101928b8101908f851115619705575f80fd5b948201945b8486101561972a5761971b866194ad565b8252948c0194908c019061970a565b918301919091525085525050918601918601619658565b5098975050505050505050565b5f806040838503121561975f575f80fd5b823561976a81618aa6565b9150602083013560098110618b01575f80fd5b5f805f805f8060608789031215619792575f80fd5b86356001600160401b03808211156197a8575f80fd5b6197b48a838b01618bc6565b909850965060208901359150808211156197cc575f80fd5b6197d88a838b01618bc6565b909650945060408901359150808211156197f0575f80fd5b506197fd89828a01618bc6565b979a9699509497509295939492505050565b5f8060408385031215619820575f80fd5b823561982b81618aa6565b915061983960208401618d9b565b90509250929050565b634e487b7160e01b5f52602160045260245ffd5b5f8060408385031215619867575f80fd5b505080516020909101519092909150565b6002811061988857619888619842565b9052565b60208101611aa08284619878565b5f602082840312156198aa575f80fd5b815161159181618aa6565b5f602082840312156198c5575f80fd5b5051919050565b6001600160a01b0392831681529116602082015260400190565b6020808252601e908201527f6f6c642076616c75652069732073616d65206173206e65772076616c75650000604082015260600190565b60208082526022908201527f6f6c6420616464726573732069732073616d65206173206e6577206164647265604082015261737360f01b606082015260800190565b634e487b7160e01b5f52603260045260245ffd5b634e487b7160e01b5f52601160045260245ffd5b80820180821115611aa057611aa0619973565b600181811c908216806199ae57607f821691505b6020821081036199cc57634e487b7160e01b5f52602260045260245ffd5b50919050565b5f600182016199e3576199e3619973565b5060010190565b818382375f9101908152919050565b5f808354619a068161999a565b60018281168015619a1e5760018114619a3357619a5f565b60ff1984168752821515830287019450619a5f565b875f526020805f205f5b85811015619a565781548a820152908401908201619a3d565b50505082870194505b50929695505050505050565b81835281816020850137505f828201602090810191909152601f909101601f19169091010190565b604081525f808554619aa48161999a565b806040860152606060018084165f8114619ac55760018114619ae157619b10565b60ff1985166060890152606084151560051b8901019550619b10565b8a5f526020805f205f5b86811015619b065781548b8201870152908401908201619aeb565b8a01606001975050505b50505050508281036020840152611ef0818587619a6b565b601f8211156129fd57805f5260205f20601f840160051c81016020851015619b4d5750805b601f840160051c820191505b81811015611e2c575f8155600101619b59565b6001600160401b03831115619b8357619b8361905a565b619b9783619b91835461999a565b83619b28565b5f601f841160018114619bc8575f8515619bb15750838201355b5f19600387901b1c1916600186901b178355611e2c565b5f83815260208120601f198716915b82811015619bf75786850135825560209485019460019092019101619bd7565b5086821015619c13575f1960f88860031b161c19848701351681555b505060018560011b0183555050505050565b5f6001600160601b03808316818103619c4057619c40619973565b6001019392505050565b81516001600160401b03811115619c6357619c6361905a565b619c7781619c71845461999a565b84619b28565b602080601f831160018114619caa575f8415619c935750858301515b5f19600386901b1c1916600185901b1785556122c5565b5f85815260208120601f198616915b82811015619cd857888601518255948401946001909101908401619cb9565b5085821015619cf557878501515f19600388901b60f8161c191681555b5050505050600190811b01905550565b602081525f611591602083018461930f565b81810381811115611aa057611aa0619973565b634e487b7160e01b5f52603160045260245ffd5b6020808252600d908201526c1a5b9d985b1a59081a5b9c1d5d609a1b604082015260600190565b5f805f8060808587031215619d78575f80fd5b505082516020840151604085015160609095015191969095509092509050565b634e487b7160e01b5f52600160045260245ffd5b6001600160a01b03831681526040602082018190525f90611ef49083018461930f565b5f60208284031215619ddf575f80fd5b815161159181618b71565b6001600160a01b038781168252868116602083015285166040820152606081018490526080810183905260c0810161493260a0830184619878565b5f805f60608486031215619e37575f80fd5b8351925060208401519150604084015190509250925092565b5f60208083018184528085518083526040925060408601915060408160051b8701018488015f5b8381101561929957888303603f19018552815180516001600160a01b031684528781015160609060038110619eae57619eae619842565b858a01529087015187850182905290619ec9818601836191e6565b968901969450505090860190600101619e77565b5f82619ef757634e487b7160e01b5f52601260045260245ffd5b500490565b6020808252602b908201527f4c69624469616d6f6e644375743a204e6f2073656c6563746f727320696e206660408201526a1858d95d081d1bc818dd5d60aa1b606082015260800190565b6020808252602c908201527f4c69624469616d6f6e644375743a204164642066616365742063616e2774206260408201526b65206164647265737328302960a01b606082015260800190565b8082028115828204841417611aa057611aa0619973565b5f82518060208501845e5f92019182525091905056fe5f736574466f726365644c69717569646174696f6e466f725573657228616464726573732c616464726573732c626f6f6c295f736574416374696f6e7350617573656428616464726573735b5d2c75696e74385b5d2c626f6f6c297365744c69717569646174696f6e496e63656e746976652875696e7439362c616464726573732c75696e74323536295f7365744d61726b6574537570706c794361707328616464726573735b5d2c75696e743235365b5d295f736574466f726365644c69717569646174696f6e28616464726573732c626f6f6c29736574436f6c6c61746572616c466163746f7228616464726573732c75696e743235362c75696e74323536295f7365744d61726b6574426f72726f774361707328616464726573735b5d2c75696e743235365b5d29736574416c6c6f77436f7265506f6f6c46616c6c6261636b2875696e7439362c626f6f6c29616464506f6f6c4d61726b6574732875696e7439365b5d2c616464726573735b5d29736574436f6c6c61746572616c466163746f722875696e7439362c616464726573732c75696e743235362c75696e74323536297365744c69717569646174696f6e496e63656e7469766528616464726573732c75696e74323536297365744973426f72726f77416c6c6f7765642875696e7439362c616464726573732c626f6f6c29a2646970667358221220c46010d53e8f2bf16cf96bd460fbd193a938fc3e304c93dc7c6cea7cf859b2b764736f6c63430008190033",
  "linkReferences": {},
  "deployedLinkReferences": {}
}